:020000040800F2
:10000000409B0020E9240008BD040008BF0400084C
:10001000C3040008C7040008CB0400080000000067
:10002000000000000000000000000000490100087E
:10003000CF040008000000008D010008D104000872
:1000400003250008032500080325000803250008F0
:1000500003250008032500080325000803250008E0
:1000600003250008032500080325000803250008D0
:1000700003250008032500080325000803250008C0
:1000800003250008032500080325000803250008B0
:1000900003250008032500080325000803250008A0
:1000A0000325000803250008032500080325000890
:1000B0000325000803250008032500080325000880
:1000C0000325000803250008032500080325000870
:1000D0000325000803250008032500080325000860
:1000E0000325000803250008032500080325000850
:1000F0000325000803250008032500080325000840
:10010000032500080325000803250008032500082F
:10011000032500080325000803250008032500081F
:10012000032500080325000803250008032500080F
:10013000DFF810D003F0E2F8004800470904000897
:10014000AFF30080409B0020224B19680868B0E89C
:10015000F00F80F30988BFF36F8F4FF0000080F33A
:1001600011884EF00D0E7047000000000648006830
:10017000006880F3088862B661B6BFF34F8FBFF3A3
:100180006F8F00DF00BF00BF08ED00E0EFF30980D4
:10019000BFF36F8F0F4B1A6820E9F00F106008B59E
:1001A0004FF0500080F31188BFF34F8FBFF36F8F74
:1001B00000F078FF4FF0000080F31188BDE80840A0
:1001C00019680868B0E8F00F80F30988BFF36F8FF3
:1001D000704700BF14000020EFF305807047000057
:1001E00008B54FF4A06002F081FA25208DF80000D8
:1001F00001208DF801008DF802008DF8030068469B
:1002000002F079FA08BD00B585B00121042002F0A2
:10021000FBFF0121880302F0F7FF4FF40070ADF8F7
:10022000100018208DF8130003208DF8120004A987
:10023000514802F02DFD4FF48060ADF8100004200D
:100240008DF8130004A94C4802F022FD4FF4E13070
:1002500000900020ADF80400ADF80600ADF80800ED
:10026000ADF80C000C20ADF80A006946434802F0D6
:10027000EEFA012240F22551404802F080FB0121B4
:100280003E4802F070FB05B000BD70B504460D4657
:100290002946204602F0D4FB00BF8021204602F010
:1002A0003DFC0028F9D070BD2DE9F04107460D4610
:1002B0001646002405E0295D3846FFF7E6FF601C7E
:1002C000C4B2B442F7DB00BF4021384602F026FC3E
:1002D0000028F9D0BDE8F08170B506460C4600252F
:1002E00000BF615D3046FFF7D0FF6D1C605D0028E8
:1002F000F7D100BF4021304602F010FC0028F9D0B1
:1003000070BD2DE9F04105460C46260AE7B231469C
:10031000284602F095FB00BF8021284602F0FEFB34
:100320000028F9D03946284602F08AFB00BF802118
:10033000284602F0F3FB0028F9D0BDE8F08170B543
:1003400004460D46E1B20D4802F07AFB00BF802161
:100350000A4802F0E3FB0028F9D0204670BD10B532
:10036000044600BF2021054802F0D8FB0028F9D040
:10037000024802F069FB10BD00080140003801404E
:100380000AE00020384908603849086001203849EF
:10039000086038A002F0C4FFF3E70EE00020324905
:1003A000086001203149086000203149086032A00E
:1003B00002F0B6FF0A2000F049FDEFE701F09EF8D9
:1003C000054600261FE02DA002F0AAFF01202649C5
:1003D00008600020254908602549086001F08EF872
:1003E000044646B905F10A00844204D32448006853
:1003F00000F091FE012605F11400844203D3204849
:10040000006800F034FFDEE70EB5FFF7FCFE1D4884
:10041000022100236422CDE900101BA11C4800F03A
:10042000D7F90020022103466422CDE9001019A16A
:100430001A4800F0CDF91A481A4902220023CDE9E2
:1004400000210290642218A1194800F074F90C49A7
:10045000086000F0FBFF00BFFEE7164B0360164B81
:100460000B60642313607047080000200C0000201C
:1004700010000020330000003200000031000000B6
:1004800004000020000000205441534B31000000C4
:10049000BD0300085461736B320000009B03000829
:1004A00034020020A40000205461736B330000006C
:1004B000810300081004002080020020704700BF64
:1004C000FEE700BFFEE700BFFEE700BFFEE77047A4
:1004D00010B501F0D2FE10BD00F1080141604FF0EF
:1004E000FF31816000F10801C160016100210160FC
:1004F000704700210161704742684A6093688B60D1
:10050000936859609160086103685B1C03607047E1
:1005100010B502460B685C1C0CB9106907E002F1CB
:10052000080000E04068446824689C42FAD94468A6
:100530004C604C68A160886041600A611468641C6A
:10054000146010BD01460A69D1E901309860D1E913
:10055000010358605068884201D1886850600020CB
:1005600008611068401E10601068704710B50024C4
:1005700007E004EB8401FB4A02EB8100FFF7ACFFCC
:10058000641C202CF5D3F848FFF7A6FFF748FFF7C7
:10059000A3FFF748FFF7A0FFF648FFF79DFFF648D7
:1005A000FFF79AFFF048F5490860F048F449086001
:1005B00010BD10B5044601F025FEF2480068401C4D
:1005C000F0490860F048006840B9EF480460084608
:1005D000006801280DD1FFF7C9FF0AE0EB48006869
:1005E00038B9E9480068C06AE16A884201D8E6483B
:1005F0000460E7480068401CE549086094F82C1046
:1006000001208840E34909680843E2490860E16A3B
:1006100001EB8101D34A02EB81014868A060826846
:10062000E260211D826851608160E16A01EB810115
:10063000CC4A02EB81026261E16A01EB8101C94AA5
:1006400052F82110491CE26A02EB8202C54B43F8C2
:10065000221001F0FAFDCD48006868B1CA48006870
:10066000C06AE16A884207D24FF08050CA490860E8
:10067000BFF34F8FBFF36F8F10BD2DE9FF5F814632
:100680000E469246DDE90E7B109CAAF10100216B1B
:1006900001EB800828F0070808F0070008B90120DE
:1006A00000E0002028B940F25F32BCA1C2A002F0F5
:1006B00037FE86B1002507E0715D04F13400415535
:1006C000705D00B902E06D1C102DF5D300BF002154
:1006D0004320015502E0002084F83400202F01D28D
:1006E000012000E0002028B940F29632ABA1B2A070
:1006F00002F016FE202F00D31F27E762201DFFF710
:10070000F8FE04F11800FFF7F4FE2461C7F12000A1
:10071000A06164620020606484F848004946404655
:10072000039A01F0C5FC2060BBF1000F01D0CBF8AB
:100730000040BDE8FF9F2DE9F04F85B00746884691
:1007400091469A46DDE90EB6109C0EB1012000E0FC
:10075000002028B940F2492290A197A002F0E0FDC4
:100760000CB1012000E0002028B940F24A228BA100
:1007700091A002F0D5FD4C20039003984C2801D1A4
:10078000012000E0002028B940F2522283A18AA073
:1007900002F0C6FD00BFACB1A6B125462E63022013
:1007A00085F84900002004A953464A46CDE900B126
:1007B000CDE9025041463846FFF75FFF2846FFF774
:1007C000F8FE01E000200490049805B0BDE8F08F29
:1007D0002DE9FF4F85B0804689461746DDE912AB0B
:1007E000B80001F0D0FD064656B14C2001F0CBFD1B
:1007F00004460CB1266304E0304601F02FFE00E011
:1008000000248CB1002084F84900CDE900ABCDE98B
:1008100002403A4649464046089BFFF72EFF2046D5
:10082000FFF7C7FE012501E04FF0FF35284609B06C
:10083000BDE8F08F51480068006808B9012000E069
:10084000002020B14FF0FF305F49086005E04B48C1
:100850000068C06800685C490860704710B50446CD
:1008600094F8490030B9206B01F0F8FD204601F002
:10087000F5FD15E094F84900012803D1204601F068
:10088000EDFD0DE094F84900022801D1012000E0BF
:10089000002028B940F6937240A147A002F040FD25
:1008A00010BD70B5054601F0ADFC15B936480068BD
:1008B00000E028460446201DFFF744FE78B9E06AB0
:1008C00000EB8000274951F8200040B994F82C1023
:1008D000012088402F49096881432E480160A06AA1
:1008E00018B104F11800FFF72DFE29480068401CDC
:1008F0002749086024480068844209D1211D1D4809
:10090000FFF7FAFD31480068401C3049086009E0F3
:100910001C480068401E1B4908602046FFF79EFFE8
:10092000FFF788FF01F091FC18480068C0B1164835
:100930000068844214D12648006808B9012000E00C
:10094000002028B940F2D34214A11BA002F0E8FC19
:100950004FF0805010490860BFF34F8FBFF36F8F87
:1009600070BD00005C040020DC060020F0060020C2
:1009700004070020180700202C0700201800002082
:100980001C00002024000020140000203000002063
:10099000400000202C00002004ED00E02E2E5C46DC
:1009A00072656552544F535C536F757263655C7426
:1009B00061736B732E6300004572726F723A257318
:1009C0002C25640D0A0000004400002020000020B7
:1009D000500000202DE9F0414FF00008FC4800686D
:1009E00000287DD1FB480068451CFA480560FDB928
:1009F000F9480068006808B9012000E0002038B913
:100A000040F6BE22AFF26C01AFF2540002F088FC57
:100A1000F1480768F1480068EF490860EF4807604F
:100A2000EF480068401CEE490860FFF703FF00BF75
:100A3000EC480068854277D300BFE748006800684B
:100A400008B9012000E0002020B14FF0FF30E54957
:100A5000086068E0E0480068C068C4686668B5423D
:100A600002D2E04806605EE06069D4E902128A6062
:100A7000D4E902214A60211D42688A4201D1E1681D
:100A80004160002262610168491E0160A06A98B15C
:100A9000A06AD4E907128A60D4E907214A6004F108
:100AA000180142688A4201D1216A41600022A26293
:100AB0000168491E016000BF94F82C100120884095
:100AC000C94909680843C8490860E16A01EB810126
:100AD000C64A02EB81014868A0608268E26000E0DB
:100AE00034E0211D826851608160E16A01EB81017F
:100AF000BE4A02EB81026261E16A01EB8101BB4AFD
:100B000052F82110491CE26A02EB8202B74B43F80B
:100B10002210B749E06A0968C96A88428DD34FF04C
:100B200001088AE700E000BFB1480068C06A00EB36
:100B30008000AE4951F82000012801D94FF001088A
:100B4000AC48006808B14FF0010804E0AA4800680A
:100B5000401CA94908604046BDE8F08170B50024FA
:100B600000269B48006838B940F6AA02AFF2D411BB
:100B7000AFF2BC1002F0D4FB01F044FB94480068D3
:100B8000401E934908600846006800287ED19B48B3
:100B9000006800287AD05BE09948C068C468A06A01
:100BA000D4E907128A60D4E907214A6004F11801E8
:100BB00042688A4201D1216A41600022A262016832
:100BC000491E01606069D4E902128A60D4E90221F9
:100BD0004A60211D42688A4201D1E16841600022D9
:100BE00062610168491E016094F82C100120884060
:100BF0007D49096808437C490860E16A01EB81018D
:100C00007A4A02EB81014868A0608268E260211D97
:100C1000826851608160E16A01EB8101734A02EBF5
:100C200081026261E16A01EB8101704A52F8211090
:100C3000491CE26A02EB82026C4B43F822106C49B9
:100C4000E06A0968C96A884202D3012069490860DC
:100C50006B48006808B9012000E0002000289BD004
:100C60000CB1FFF7E7FD6448056865B100BFFFF709
:100C7000B1FE10B101205F4908606D1E002DF6D154
:100C800000205D4908605B48006800E008E038B17A
:100C9000012630075B490860BFF34F8FBFF36F8FAA
:100CA00001F0D3FA304670BD2DE9F04105460E46FD
:100CB000484807684E480068001DFFF743FC50B9DC
:100CC0004B48006890F82C1001208840464909687C
:100CD000814345480160681CD8B9D6B14A49486883
:100CE000434909688860424982680968CA60404986
:100CF0000968091D826851603D490968091D8160C4
:100D0000414A3B4909684A6111460968491C11601A
:100D10001AE07C19364800684460BC4207D2344867
:100D20000168091D2D480068FFF7F2FB0CE0304810
:100D30000168091D28480068FFF7EAFB2948006898
:100D4000844201D227480460BDE8F0812048006851
:100D5000401C1F49086070472DE9F04704460F46C4
:100D60004FF000093CB94FF49D62AFF2D031AFF2C1
:100D7000B83002F0D5FA0FB1012000E0002038B9F8
:100D800040F2E942AFF2EC31AFF2D43002F0C8FAEF
:100D90000F48006808B9012000E0002038B940F28F
:100DA000EA42AFF20841AFF2F03002F0B9FAFFF7D1
:100DB000CDFF084806682068C5192068B04225D9CB
:100DC0002068A84229D9B54227D94FF0010924E06B
:100DD0005000002028000020180000201C000020E7
:100DE0003C000020440000202C0000205C04002077
:100DF00014000020380000203400002024000020CF
:100E00000407002004ED00E02C0700202068A84221
:100E100001D8B54201D94FF001092560B9F1000FA1
:100E200003D0A81B0021FFF73FFFFFF797FE804686
:100E3000B8F1000F07D14FF08050F7490860BFF3B9
:100E40004F8FBFF36F8F4846BDE8F08770B50446FB
:100E50000025BCB1F148006808B9012000E000207D
:100E600038B94FF4A862AFF2CC41AFF2B44002F00F
:100E700057FAFFF76BFF00212046FFF715FFFFF73A
:100E80006DFE05463DB94FF08050E3490860BFF361
:100E90004F8FBFF36F8F70BD2DE9F04707463E4679
:100EA0003EB940F26C52AFF20C51AFF2F44002F096
:100EB00037FADB480068864201D100242DE001F0BA
:100EC000A1F97569D748D0F80080D748D0F80090CC
:100ED00001F0BBF9454501D04D4501D102241CE08C
:100EE000D248854212D1B06A70B90324002007E0CD
:100EF00006F14801095C012901D1022402E0401CED
:100F00000128F5DB00BF08E0022406E0C84885425E
:100F100000D00DB9042400E001242046BDE8F0878C
:100F200070B5044601F06EF914B9BD48006800E0E0
:100F300020460646F56A01F088F9284670BD2DE97D
:100F4000F041054601F0B1F900BF5021EFF31180E7
:100F500081F31188BFF34F8FBFF36F8F00BF04463B
:100F600015B9AF48006800E028460746FE6A00BF92
:100F700084F3118800BF3046BDE8F0812DE9F047C9
:100F800080460D464FF00009202D01D2012000E0DF
:100F9000002038B940F20C62AFF20061AFF2E850C5
:100FA00002F0BEF9202D00D31F2501F02BF9B8F176
:100FB000000F02D19A48006800E040460446E66A05
:100FC000AE426BD0B5420BD99548006884420DD033
:100FD00093480068C06AA84208D84FF0010905E0AC
:100FE0008F480068844201D14FF00109E76AE56249
:100FF000A06900F0004010B9C5F12000A06107EB26
:1010000087018C4A02EB81016069884201D101208D
:1010100000E00020B0B3201DFFF794FA30B90120A2
:10102000B8408549096881438348016094F82C10D1
:10103000012088408049096808437F490860E16AC7
:1010400001EB81017B4A02EB81014868A060826864
:10105000E260211D826851608160E16A01EB8101DB
:10106000744A02EB81026261E16A01EB8101714A1B
:1010700052F82110491CE26A02EB82026D4B43F8E0
:10108000221000BFB9F1000F07D04FF08050624925
:101090000860BFF34F8FBFF36F8F00BF01F0D5F82B
:1010A000BDE8F08710B55D48006818B101206349BC
:1010B00008602FE00020614908605F480068B0FACE
:1010C00080F0C0F11F0404EB84005A4951F820005D
:1010D00008B1012000E0002038B940F6F932AFF243
:1010E0004471AFF22C7002F01BF904EB8401514AF9
:1010F00002EB810041684968416000F108014268E3
:101100008A4202D14168496841604168C968444ADD
:10111000116000BF10BD70B5054601F073F815B938
:101120003F48006800E028460446201DFFF70AFA01
:1011300078B9E06A00EB80003E4951F8200040B9E0
:1011400094F82C10012088403B49096881433A48B3
:101150000160A06A18B104F11800FFF7F3F9211D2E
:101160003248FFF7C9F9002009E004F14801095CA1
:10117000012903D1002204F148010A54401C01282E
:10118000F3DB01F062F82E48006828B101F03AF86C
:10119000FFF750FB01F059F821480068844226D13E
:1011A00027480068B8B11D48006808B9012000E070
:1011B000002038B940F2F462AFF62001AFF6080023
:1011C00002F0AEF84FF0805013490860BFF34F8F24
:1011D000BFF36F8F0BE0154800681A490968884211
:1011E00003D100200E49086001E0FFF75BFF70BDEE
:1011F00070B5054600262C463DB940F21E72AFF68A
:101200006401AFF64C0002F08BF80849606988422F
:101210001AD1012019E0000004ED00E05000002088
:1012200014000020180000201C0000202C070020C3
:10123000180700205C0400202C000020380000204B
:101240003000002024000020002070B1FE49A06A78
:10125000884201D1012000E0002030B9A06A08B91D
:10126000012000E0002000B10126304670BD70B5BD
:1012700005462C463DB94FF4E962AFF6E001AFF602
:10128000C80002F04DF8F1480068844245D0002CB7
:1012900043D000F0B7FF2046FFF7AAFFD8B3201DC8
:1012A000FFF750F994F82C1001208840E8490968AC
:1012B0000843E7490860E16A01EB8101E54A02EB76
:1012C00081014868A0608268E260211D82685160E7
:1012D0008160E16A01EB8101DE4A02EB8102626119
:1012E000E16A01EB8101DB4A52F82110491CE26AF4
:1012F00002EB8202D74B43F82210D449E06A096816
:10130000C96A884207D34FF08050D3490860BFF3C1
:101310004F8FBFF36F8F00F098FF70BD2DE9F04144
:101320000646002734463EB940F27F72AFF694116C
:10133000AFF67C1001F0F4FF00F0B7FF00BF5020C3
:10134000EFF3118180F31188BFF34F8FBFF36F8FDD
:1013500000BF0D462046FFF74BFF002841D0BF4895
:101360000068002838D1B949E06A0968C96A88422A
:1013700003D301270120BA490860201DFFF7E2F8D6
:1013800094F82C1001208840B14909680843B049FD
:101390000860E16A01EB8101AE4A02EB8101486815
:1013A000A0608268E260211D826851608160E16A0C
:1013B00001EB8101A74A02EB81026261E16A01EB64
:1013C0008101A44A52F82110491CE26A02EB820210
:1013D000A04B43F8221004E004F118019A48FFF7EB
:1013E0008BF800BF85F3118800BF3846BDE8F08157
:1013F00010B516E000F006FF9A48C068C468201DCA
:10140000FFF7A0F898480068401E97490860974881
:101410000068401E9549086000F017FF2046FFF75E
:101420001DFA924800680028E4D110BD00BFFFF704
:10143000DFFF884800680128F9D94FF080508649BD
:101440000860BFF34F8FBFF36F8FF0E710B586B022
:1014500000200590049003AA04A905A8FEF7FDFF4B
:101460000022DDE904101346CDE90021029080A19D
:101470008148039AFFF75FF98049086008460068D1
:1014800008B1012400E00024012C15D100BF502038
:1014900080F31188BFF34F8FBFF36F8F00BF4FF002
:1014A000FF307749086001207649086000207649BE
:1014B000086000F01EFE0DE0601C08B1012000E095
:1014C000002038B940F63702AFF63031AFF61830A9
:1014D00001F026FF6D48006806B010BD10B500BFD2
:1014E000502080F31188BFF34F8FBFF36F8F00BF81
:1014F00000206449086000F074FE10BD624908686D
:10150000704770B500F0D1FE00255F4804682046A2
:1015100070BD55480068704770B5044614B94B4813
:10152000006800E0204605463DB94FF41562AFF66D
:101530009431AFF67C3001F0F3FE05F1340070BD5C
:1015400070B504464548006808B9012000E0002055
:1015500038B940F64B22AFF6BC31AFF6A43001F0FB
:10156000DFFEFFF7F3FB4A48006820444849086063
:10157000FFF7F4FA0546284670BD70B504460D46DF
:101580003CB940F61342AFF6EC31AFF6D43001F07F
:10159000C7FE2E48016818312046FEF7B9FF012129
:1015A0002846FFF781FB70BD70B504460D46164610
:1015B0003CB940F62D42AFF61C41AFF6044001F0B5
:1015C000AFFE2648006808B1012000E0002038B9CD
:1015D00040F63142AFF63C41AFF6244001F0A0FEA8
:1015E00045F0004019490968886160681749096831
:1015F000C8611649826809680A6214490968183185
:101600008268516011490968183181600F49096881
:101610008C622168491C216001213046FFF744FBA0
:1016200070BD70B50646F068C4683CB940F67942B2
:10163000AFF69841AFF6804001F072FEA06AD4E99F
:1016400007128A6026E00000040700201400002032
:101650002C0000205C04002004ED00E0500000207D
:10166000380000201807002024000020200000205F
:1016700049444C45000000002D140008480000209B
:101680004400002030000020280000204C000020F2
:1016900034000020D4E907214A6004F118014268AF
:1016A0008A4201D1216A41600022A2620168491E7A
:1016B0000160FD48006800283DD16069D4E902124C
:1016C0008A60D4E902214A60211D42688A4201D120
:1016D000E1684160002262610168491E016094F87E
:1016E0002C1001208840F14909680843EF4908603F
:1016F000E16A01EB8101EE4A02EB81014868A060DA
:101700008268E260211D826851608160E16A01EBBC
:101710008101E74A02EB81026261E16A01EB81012A
:10172000E34A52F82110491CE26A02EB8202E04BC4
:1017300043F8221010E0DF494868E06182682262C5
:1017400004F11801826851608160DA4AA262114690
:101750000968491C116000BFD749E06A0968C96A75
:10176000884204D901250120D449086000E0002501
:10177000284670BD70B505460E46CB48006808B1D6
:10178000012000E0002038B940F6B142AFF6F45134
:10179000AFF6DC5001F0C4FD46F000402860EC6874
:1017A0003CB940F6B942AFF60C61AFF6F45001F027
:1017B000B7FD2869D5E901219160D5E90112516091
:1017C0004168A94201D1A9684160002129610168ED
:1017D000491E01606069D4E902128A60D4E90221DD
:1017E0004A60211D42688A4201D1E16841600022BD
:1017F00062610168491E016094F82C100120884044
:10180000AA4909680843A9490860E16A01EB810116
:10181000A74A02EB81014868A0608268E260211D4E
:10182000826851608160E16A01EB8101A04A02EBAC
:1018300081026261E16A01EB81019D4A52F8211047
:10184000491CE26A02EB8202994B43F822109A4942
:10185000E06A0968C96A884202D90120974908608C
:1018600070BD10B504463CB940F6DD42AFF6D46118
:10187000AFF6BC6001F054FD00F0C4FC9048006875
:10188000206090480068606000F0DFFC10BD8C496B
:10189000096801608B4909684160704770B5054669
:1018A0000C463DB940F6F442AFF61071AFF6F86061
:1018B00001F036FD3CB940F6F542AFF62071AFF6C7
:1018C000087001F02DFD00F09DFC7E4803686868FB
:1018D0001A1A2068401C08B9002619E078492868BF
:1018E0000968884206D06868984203D8012600201B
:1018F00020600DE02068904207D92068801A20609F
:101900002846FFF7C4FF002602E0002020600126E1
:1019100000F09BFC304670BD0120684908607047AC
:101920006949096809B9012005E05F49096809B9F1
:10193000022000E0002070475F49096888695E491D
:101940000968C96AC1F120015B4A12689161704758
:101950002DE9F04104460F4616460CB9012000E07F
:10196000002038B941F25D22AFF6D071AFF6B87001
:1019700001F0D6FC00F046FC4F480068443050F8B7
:10198000240080B901214C4800684830015556B107
:101990003046FFF789F94FF080504C490860BFF39B
:1019A0004F8FBFF36F8F00F050FC00F02BFC4248CC
:1019B0000068443050F824506DB137B100213E48E2
:1019C0000068443040F8241005E0681E3A49096870
:1019D000443141F82400002137480068483001555F
:1019E00000F033FC2846BDE8F0812DE9F0470446BD
:1019F0000F4690461D46DDF820900CB9012000E00E
:101A0000002030B941F2A722314901F11C0001F058
:101A100087FC00F0F7FB284800684830005D02288A
:101A20001AD025490968443101EB84000168B943A3
:101A3000016001212048006848300155B9F1000FCC
:101A40000AD04846FFF730F94FF080501F49086030
:101A5000BFF34F8FBFF36F8F00F0F7FB00F0D2FBA7
:101A60002DB115480068443050F824002860124811
:101A700000684830005D022801D0002609E00E49C8
:101A80000968443101EB8400016821EA0801016022
:101A900001260021084800684830015500F0D5FBB8
:101AA0003046BDE8F0870000500000202C000020E8
:101AB0005C040020040700201400002038000020EF
:101AC0003C000020280000203000002004ED00E051
:101AD0009C0900082DE9F05F07460D46164698461A
:101AE000DDF828A04FF0010B0DB9012000E0002027
:101AF00030B941F2FF22FE4901F11C0001F010FC57
:101B000037B94FF49852FA4901F11C0001F008FC72
:101B10003C4600F077FBBAF1000F05D004F1440019
:101B200050F82500CAF8000004F1480010F80590AC
:101B300002214155B8F1050F29D2DFE808F027034B
:101B40000D171C0004F1440050F82500304304F147
:101B5000440141F8250029E004F1440050F8250033
:101B6000401C04F1440141F825001FE004F1440049
:101B700040F825601AE0B9F1020F04D004F14400E6
:101B800040F8256001E04FF0000B0FE00EE0D9486F
:101B9000006808B9012000E0002030B941F2353278
:101BA000D34901F11C0001F0BBFB00BF00BFB9F13C
:101BB000010F57D16069D4E902128A60D4E9022189
:101BC0004A60211D42688A4201D1E16841600022D9
:101BD00062610168491E016094F82C100120884060
:101BE000C54909680843C4490860E16A01EB8101FD
:101BF000C24A02EB81014868A0608268E260211D50
:101C0000826851608160E16A01EB8101BB4A02EBAD
:101C100081026261E16A01EB8101B84A52F8211048
:101C2000491CE26A02EB8202B44B43F82210A06A1C
:101C300008B9012000E0002030B941F24432AC493B
:101C400001F11C0001F06CFBAD49E06A0968C96A4A
:101C5000884207D94FF08050AA490860BFF34F8FE0
:101C6000BFF36F8F00F0F1FA5846BDE8F09F2DE901
:101C7000F84F80460D4617469946DDF828B00120FA
:101C80000090B8F1000F06D141F27C32984901F181
:101C90001C0001F045FB0DB9012000E0002030B927
:101CA00041F27D32924901F11C0001F039FB00F054
:101CB000FCFA444600BF5021EFF3118081F31188F4
:101CC000BFF34F8FBFF36F8F00BF0646BBF1000F0E
:101CD00005D004F1440050F82500CBF8000004F1D1
:101CE000480010F805A002214155B9F1050F29D28D
:101CF000DFE809F027030D171C0004F1440050F839
:101D00002500384304F1440141F8250029E004F19D
:101D1000440050F82500401C04F1440141F825001E
:101D20001FE004F1440040F825701AE0BAF1020FF8
:101D300004D004F1440040F8257001E00020009038
:101D40000FE00EE06B48006808B9012000E00020B9
:101D500030B941F2C432664901F11C0001F0E0FAE9
:101D600000BF00BFBAF1010F6DD1A06A08B9012010
:101D700000E0002030B941F2CF325D4901F11C0092
:101D800001F0CEFA60480068E8BB6069D4E902124D
:101D90008A60D4E902214A60211D42688A4201D149
:101DA000E1684160002262610168491E016094F8A7
:101DB0002C10012088405049096808434E490860AA
:101DC000E16A01EB81014D4A02EB81014868A060A4
:101DD0008268E260211D826851608160E16A01EBE6
:101DE0008101464A02EB81026261E16A01EB8101F5
:101DF000424A52F82110491CE26A02EB82023F4B30
:101E000043F8221011E0FFE740494868E06182682A
:101E1000226204F118018268516081603B4AA2622B
:101E200011460968491C116000BF3549E06A09681C
:101E3000C96A884207D90B9810B101210B9801603B
:101E400001203349086000BF86F3118800BF009865
:101E5000BDE8F88F2DE9F04705460E46904635B9A6
:101E600041F20342224901F11C0001F059FA0EB976
:101E7000012000E0002030B941F204421C4901F188
:101E80001C0001F04DFA00F010FA2C4600BF502162
:101E9000EFF3118081F31188BFF34F8FBFF36F8F82
:101EA00000BF074604F1480010F806900221815552
:101EB000001F50F82600401C04F1440141F82600A0
:101EC000B9F1010F7DD1A06A08B9012000E000201E
:101ED00030B941F22A42064901F11C0001F020FA12
:101EE00009480068002850D16069D4E9021211E065
:101EF0009C090008280000202C0000205C04002021
:101F00001400002004ED00E0500000200407002031
:101F1000380000208A60D4E902214A60211D42680D
:101F20008A4201D1E1684160002262610168491E74
:101F3000016094F82C10012088404B49096808433F
:101F400049490860E16A01EB8101484A02EB8101DD
:101F50004868A0608268E260211D826851608160EB
:101F6000E16A01EB8101414A02EB81026261E16AAF
:101F700001EB81013D4A52F82110491CE26A02EB53
:101F800082023A4B43F8221010E039494868E06178
:101F90008268226204F11801826851608160344ACB
:101FA000A26211460968491C116000BF3149E06A0C
:101FB0000968C96A88420AD9B8F1000F04D0012023
:101FC00000E004E0C8F8000001202B49086000BFD1
:101FD00087F3118800BFBDE8F0872DE9F041064680
:101FE0000C460CB9012000E0002030B941F25A4201
:101FF000224901F11C0001F093F916B91D4800684F
:1020000000E03046074600F0FDF807F14800005DAB
:10201000022805D1002107F148000155012500E003
:10202000002500F012F92846BDE8F0812DE9F041C5
:1020300006460C46174616B90E48006800E03046C2
:10204000054600F0DFF805F1440050F8248050F810
:102050002400B84305F1440141F8240000F0F5F8EC
:102060004046BDE8F08100002C0000205C04002008
:102070000407002014000020380000209C090008FC
:10208000A0480068401C08B9012000E0002020B9E9
:10209000CE229DA1A7A001F043F900BF502080F3FC
:1020A0001188BFF34F8FBFF36F8F00BF00BFFEE7F4
:1020B000001F4FF080730360001F21F001030360D5
:1020C000001FA04B036014380260203870470020C6
:1020D0004FF0E021086188619B4800684FF47A71F5
:1020E000B0FBF1F0401E4FF0E0214861072008618D
:1020F00070471CB5954C204600780190FF20214682
:1021000008700846007800909DF8000000F0F0008C
:102110009DF80010884201D1012000E0002028B97C
:1021200040F21F1278A183A001F0FAF89DF8000098
:1021300000F050008649087007208649086009E0D1
:1021400084480068401E834908609DF800004006EE
:10215000000E00909DF8000000F080008028EFD075
:102160007C480068C0F10700042801D1012000E08C
:10217000002028B940F2331263A16EA001F0D0F81C
:1021800074480068C0F10700042801D1012000E074
:10219000002028B94FF49E725BA166A001F0C0F840
:1021A0006C48006800026B4908600846008800F42B
:1021B000E06008606549019808706748006840F46D
:1021C0007000654908600846006840F0704008608B
:1021D000FFF77DFF00204B490860FDF7C7FF002097
:1021E0001CBD10B547480068B0F57A7F01D10120C9
:1021F00000E0002028B940F2631243A14DA001F095
:102200008FF810BD10B500BF502080F31188BFF3C8
:102210004F8FBFF36F8F00BF3A480068401C3949A9
:1022200008600846006801280ED14B481C38006839
:10223000C0B208B9012000E0002028B940F27312B2
:1022400031A13CA001F06CF810BD10B52D4800681C
:1022500028B94FF4BD722CA136A001F061F82948CD
:102260000068401E274908600846006820B9002021
:1022700080F3118800BF00BF10BD10B500BF502013
:1022800080F31188BFF34F8FBFF36F8F00BFFEF74E
:10229000A1FB20B14FF080502F491C39086000BFCE
:1022A000002080F3118800BF10BD70B5FDF794FFCA
:1022B0000546102D11D305F1E02090F8F043244895
:1022C0000078844201DB012000E0002028B940F2C0
:1022D000BB220DA117A001F023F81F481438006895
:1022E00000F4E0601B490968884201D8012000E041
:1022F000002028B940F2CB2203A10EA001F010F873
:1023000070BD0000540000202E2E5C4672656552A0
:10231000544F535C706F727461626C655C525644CA
:10232000535C41524D5F434D335C706F72742E634A
:10233000000000004572726F723A25732C25640DFF
:102340000A000000812000087800002000E400E07E
:10235000580000205C00002020ED00E04F4A22F0F1
:1023600007004F4A106000224D4B5A6048F6F87241
:102370004C4B5A6000221A60014648F6F8724A60D7
:102380001A460A6070472DE9F04104464FF00008F4
:10239000FEF7DCFC4448006820B9FFF7DFFF0120AE
:1023A00041490860FCB104F10800A0421BD908347F
:1023B00004F00700C0F108002044A04211D904F045
:1023C0000700C0F10800044404F0070008B9012028
:1023D00000E0002040B9942234A13EA000F0A0FF0C
:1023E00002E0002400E00024002C32D03D480068C8
:1023F00084422ED82A4F3846056801E02F462D68C2
:102400006868A04202D228680028F7D12548854292
:102410001FD0386800F10808286838606868001B19
:10242000102810D92E196868001B70606C607168E4
:102430001B4800E00068026852688A42FAD30268CA
:102440003260066000BF274968680968081A254994
:102450000860FEF783FB4046BDE8F08170B5064694
:102460003546B6B1083D2C46FEF770FC61680C4855
:1024700000E00068026852688A42FAD3026822606B
:102480000460184960680968084416490860FEF746
:1024900065FB70BD1348006870477047480700200F
:1024A0006000002068000020740000202E2E5C4692
:1024B00072656552544F535C706F727461626C65E3
:1024C0005C4D656D4D616E675C686561705F322E55
:1024D000630000004572726F723A25732C25640DFB
:1024E0000A000000700000200648804706480047A8
:1024F000FEE7FEE7FEE7FEE7FEE7FEE7FEE7FEE7B4
:10250000FEE7FEE7EB250008310100080CB50020CE
:10251000019000906C48006840F480306A4908607F
:1025200000BF6948006800F4003000900198401C2A
:102530000190009818B90198B0F5A06FF1D16248E8
:10254000006800F4003010B10120009001E000208C
:1025500000900098012843D15C48006840F01000CA
:102560005A4908600846006820F0030008600846E1
:10257000006840F0020008605348406852494860D3
:102580000846406848600846406840F480604860FB
:102590000846406820F47C1048600846406840F4D3
:1025A000E81048600846006840F08070086000BF8E
:1025B0004548006800F000700028F9D042484068A3
:1025C00020F00300404948600846406840F002009F
:1025D000486000BF3C48406800F00C000828F9D172
:1025E0000CBD10B5FFF792FF10BD10B5364800685E
:1025F00040F001003449086008464068344908400A
:102600003149486008460068324908402E49086050
:102610000846006820F4802008600846406820F4DE
:10262000FE0048604FF41F008860FFF7DAFF4FF0AC
:1026300000602949086010BD10B50021002000226B
:10264000214B5B6803F00C0121B1042906D0082955
:1026500028D107E0214B224C236027E01F4B204C60
:10266000236023E0184B5B6803F47010164B5B6823
:1026700003F48032022303EB904022B9194B434309
:10268000174C23600DE0104B5B6803F4003323B15B
:10269000144B4343124C236003E0104B4343104C54
:1026A000236003E00D4B0E4C236000BF00BF064BC0
:1026B0005B68C3F303130C4CE15C094B1B68CB4014
:1026C000074C236010BD00000010024000200240B3
:1026D0000000FFF8FFFFF6FE08ED00E000127A00B0
:1026E0007800002000093D007C00002031490143B2
:1026F000314A1160704770B5002100230F22C47861
:1027000004B32D4C246804F4E064C4F5E064210AA9
:10271000C1F10403CA40447804FA03F184781440F8
:1027200021430901254C0678A155047804F01F05C2
:102730000124AC4005786D11AD0005F1E025C5F828
:10274000004109E0047804F01F050124AC401C4D51
:102750000678761145F8264070BD1A4A0A400243B1
:10276000154B1B1F1A60704739B1134A121D1268AE
:102770000243114B1B1D1A6006E00F4A121D12681E
:1027800082430D4B1B1D1A607047042808D14FF07F
:10279000E021096941F004014FF0E022116107E0F6
:1027A0004FF0E021096921F004014FF0E0221161AE
:1027B000704700000000FA050CED00E000E400E0C6
:1027C00080E100E080FFFF1F10B50446FB48844213
:1027D00009D10121880300F031FD00214FF4804030
:1027E00000F02CFD32E0F648844209D10121480472
:1027F00000F031FD00214FF4003000F02CFD25E009
:10280000F048844209D10121880400F024FD002110
:102810004FF4802000F01FFD18E0EB48844209D1FE
:102820000121C80400F017FD00214FF4002000F042
:1028300012FD0BE0E548844208D10121080500F0B3
:102840000AFD00214FF4801000F005FD10BD2DE9B8
:10285000F04786B005460E460024A24600BFA146BA
:102860000027B08900B100BF2F462C8A4CF6FF70BC
:102870000440F08804432C82AC894EF6F3100440E7
:10288000B08831890843718908430443AC81AC8A1C
:102890004FF6FF400440B0890443AC8201A800F029
:1028A00046FCC648874202D1DDF810A001E0DDF801
:1028B0000CA0A88900F4004040B10AEBCA0000EB6C
:1028C0000A1031684900B0FBF1F807E00AEBCA00D2
:1028D00000EB0A1031688900B0FBF1F86420B8FB06
:1028E000F0F004012009642101FB1089A88900F49B
:1028F000004040B1322000EBC900B0FBF1F000F025
:102900000700044308E0322000EB09106421B0FB0B
:10291000F1F000F00F0004432C8106B0BDE8F08711
:102920004FF41651016000218180C18001810C218A
:10293000418100218181704710B502460020108A34
:102940004FF2FF0318400B884C8823438C882343A5
:10295000CC8823431843108210BD002101804180A0
:102960008180C180704721B1828942F40052828106
:1029700004E082894DF6FF731A4082817047F0B5FA
:102980000346002400260025002040F66A17B942BD
:1029900000D100BF1846C1F3421401F01F06012701
:1029A00007FA06F5012C01D10C3004E0022C01D10C
:1029B000103000E014301AB107682F43076002E0BE
:1029C0000768AF430760F0BD1AB1838A0B43838267
:1029D00002E0838A8B4383827047028A4FF6F0734A
:1029E0001A400282028A0A430282704782894FF2A9
:1029F000FF731A40828182890A438281704721B124
:102A0000828942F00202828104E082894FF6FD73DE
:102A10001A4082817047028A4FF6DF731A400282A1
:102A2000028A0A430282704721B1028A42F480423C
:102A3000028204E0028A4BF6FF731A40028270475A
:102A4000C1F308028280704701468888C0F30800FD
:102A50007047818941F0010181817047028BD2B2B8
:102A60000283028B42EA012202837047028B02F446
:102A70007F420283028B0A430283704721B1828A1C
:102A800042F02002828204E0828A4FF6DF731A400D
:102A90008282704721B1828A42F01002828204E071
:102AA000828A4FF6EF731A408282704721B1828A80
:102AB00042F00802828204E0828A4FF6F7731A40DD
:102AC0008282704721B1828942F40042828103E010
:102AD0008289C2F30E028281704721B1828A42F458
:102AE0000062828204E0828A4FF2FF731A4082827F
:102AF0007047828A4FF6FB731A408282828A0A43A9
:102B00008282704721B1828A42F00202828204E00E
:102B1000828A4FF6FD731A40828270470246002077
:102B2000B1F5007F00D100BF13880B400BB101202D
:102B300000E00020704701F40072B2F5007F00D180
:102B400000BFCA430280704770B5024600240023CC
:102B50000025002040F66A16B14200D100BFC1F343
:102B6000421501F01F03012606FA03F3012D02D1DD
:102B70009689334006E0022D02D1168A334001E0E7
:102B8000968A33400C12012606FA04F41688344063
:102B900013B10CB1012000E0002070BD10B500227F
:102BA000002340F66A14A14200D100BF0A1201249A
:102BB0009440A3B2DC43048010BD00000038014003
:102BC0000044004000480040004C004000500040DD
:102BD00010B50446CC48844208D10121042000F0FD
:102BE0002DFB0021042000F029FB46E0C748844269
:102BF00008D10121082000F021FB0021082000F06D
:102C00001DFB3AE0C248844208D10121102000F0A7
:102C100015FB0021102000F011FB2EE0BD4884427E
:102C200008D10121202000F009FB0021202000F024
:102C300005FB22E0B848844208D10121402000F081
:102C4000FDFA0021402000F0F9FA16E0B348844272
:102C500008D10121802000F0F1FA0021802000F04D
:102C6000EDFA0AE0AE48844207D10121801500F058
:102C7000E5FA0021A01500F0E1FA10BD10B5012120
:102C8000084600F0DBFA0021012000F0D7FA10BD61
:102C90002DE9F041024600250026002000230024F3
:102CA000002791F803C00CF00F0591F803C00CF059
:102CB000100CBCF1000F03D091F802C04CEA0505DE
:102CC00091F800C0BCF1000F31D0146800202BE057
:102CD0004FF0010C0CFA00F3B1F800C00CEA030647
:102CE0009E4220D183004FF00F0C0CFA03F7BC4337
:102CF00005FA03FC4CEA040491F803C0BCF1280F68
:102D000006D14FF0010C0CFA00FCC2F814C00AE026
:102D100091F803C0BCF1480F05D14FF0010C0CFA3B
:102D200000FCC2F810C0401C0828D1D31460B1F8D0
:102D300000C0BCF1FF0F34DD546800202EE000F12C
:102D4000080C4FF0010808FA0CF3B1F800C00CEAC7
:102D500003069E4221D183004FF00F0C0CFA03F7BB
:102D6000BC4305FA03FC4CEA040491F803C0BCF12F
:102D7000280F05D100F1080C08FA0CF8C2F81480ED
:102D800091F803C0BCF1480F07D100F1080C4FF0D7
:102D9000010808FA0CF8C2F81080401C0828CED3AD
:102DA0005460BDE8F0814FF6FF710180022181700F
:102DB0000421C17070470246002093680B400BB19C
:102DC000012000E0002070470146886880B270470B
:102DD00002460020D3680B400BB1012000E0002028
:102DE00070470146C86880B2704701617047416111
:102DF00070470AB1016100E041617047C1607047EE
:102E00004FF480320A438261816182618269826902
:102E1000704702460020434B18684FF680731840F5
:102E200040EA021008433F4B186070473E49C861B2
:102E30007047F0B50A46002300240021002500F069
:102E40000046B6F1004F02D1364EF16901E0354E31
:102E50007168C0F3034583B200F44016B6F5401F15
:102E600008D121F070612F4E766826F070662D4FE4
:102E70007E6012E000F48016B6F5801F06D10326AE
:102E800006FA05F4A14341F0706106E0460D3601F3
:102E900003FA06F6B14341F0706122B1460D3601E6
:102EA00003FA06F6314300F00046B6F1004F02D1B6
:102EB0001C4EF16101E01B4E7160F0BD30B5002287
:102EC0008B071C0F0F2303FA04F2164B08338C10E8
:102ED00053F824309343134C08348D1044F82530B4
:102EE00023468C1053F824308C07240F00FA04F486
:102EF00023430C4C08348D1044F8253030BD0A496A
:102F0000DC3108607047000000080140000C0140FF
:102F1000001001400014014000180140001C014055
:102F2000002001400000014000002042DF4800680E
:102F300040F00100DD49086008464068DC4908406F
:102F4000DA49486008460068DA490840D74908600D
:102F50000846006820F4802008600846406820F495
:102F6000FE0048604FF41F0088607047CF49096831
:102F700021F48031CD4A11601146096821F4802185
:102F80001160B0F5803F03D0B0F5802F0ED106E080
:102F9000C649096841F48031C44A116007E0C34959
:102FA000096841F4A021C14A116000E000BF00BFE0
:102FB000704710B501460022002300204A11012A63
:102FC00002D1BA4C236806E0022A02D1B74C236A28
:102FD00001E0B64C636A01F01F02012494401C40DA
:102FE0000CB1012000E0002010BD38B50020009099
:102FF0000024002500BF3120FFF7DBFF05460098C5
:10300000401C00900098B0F5A06F01D0002DF2D0C8
:103010003120FFF7CEFF08B1012400E00024204654
:1030200038BD01460020A14A106820F0F80040EAAF
:10303000C10010607047A049086070470246002038
:103040009A4B586820F47C1042EA01031843974BCE
:103050005860704798490866704701460020934AB7
:10306000506820F003000843506070478F48406864
:1030700000F00C007047014600208C4A506820F098
:10308000F00008435060704701460020874A5068AE
:1030900020F4E06008435060704701460020834AF6
:1030A000506820F4605040EAC1005060704729B178
:1030B0007E4A527A02437D4B5A7204E07B4A527A2E
:1030C00082437A4B5A7270477B49D8310860704707
:1030D00001460020754A506820F440400843506083
:1030E00070470021714A20321170704A82F8201016
:1030F000012802D004280AD104E001216B4A2032C1
:10310000117005E00521694A2032117000E000BF0E
:1031100000BF70476949086070476449096A014304
:10312000624A11627047654944390860704730B59A
:1031300000210022002400235C4D6D6805F00C0185
:1031400021B1042905D0082923D105E05C4D056093
:1031500022E05B4D05601FE0544D6D6805F4701270
:10316000524D6D6805F48034022505EB92421CB97E
:10317000544D554305600BE04C4D6D6805F400352A
:103180001DB1504D5543056002E04D4D554305605E
:1031900002E04B4D056000BF00BF444D6D6805F077
:1031A000F0010909484D6B5C0568DD4045603F4D05
:1031B0006D6805F4E061090A434D6B5C4568DD40CC
:1031C00085603A4D6D6805F46051C90A3E4D6B5CEF
:1031D0004568DD40C560354D6D6805F44041890B9B
:1031E0003A4D6B5CC568B5FBF3F5056130BD29B19F
:1031F0002E4A526902432D4B5A6104E02B4A526910
:1032000082432A4B5A61704729B1284A9269024386
:10321000264B9A6104E0254A92698243234B9A61C6
:10322000704729B1214AD2690243204BDA6104E098
:103230001E4AD26982431D4BDA61704729B11B4A8D
:10324000D2680243194BDA6004E0184AD26882431C
:10325000164BDA60704729B1144A12690243134BC6
:103260001A6104E0114A12698243104B1A617047D7
:1032700012494039086070470F49C86470470B49CC
:10328000C87170470948406A40F080700749486239
:10329000704701460020054A92680A400AB10120A1
:1032A00000E000207047014988727047001002401A
:1032B0000000FFF8FFFFF6FE000042428004424299
:1032C00000127A0000093D008C0000209C000020C4
:1032D00030B50B46014600202022012409E021FAE6
:1032E00002F59D4205D303FA02F5491B04FA02F5E3
:1032F0002844151EA2F10102F1DC30BD064C074D39
:1033000006E0E06840F0010394E8070098471034B5
:10331000AC42F6D3FCF710FF18350008383500082A
:103320000FB4054B10B503A9044A029800F018F831
:1033300010BC5DF814FB00003F030008A000002053
:1033400002E008C8121F08C1002AFAD1704770476E
:10335000002001E001C1121F002AFBD170470000CC
:103360002DE9FF4F8BB09A460F460546002606E032
:1033700025280BD052460D9990476D1C761C287855
:103380000028F5D10FB03046BDE8F08F0024A046EC
:103390000122604900E0044315F8013F203B02FA96
:1033A00003F00842F7D128782E2817D115F8010F1D
:1033B00044F004042A280ED06FF02F022878A0F1E0
:1033C000300109290AD808EB880102EB410100EB22
:1033D00001086D1CF2E757F8048B6D1C28786928EA
:1033E0003ED006DC0028CDD063280BD0642804D161
:1033F00036E0732810D075284BD052460D9990476F
:10340000761C85E017F8040B8DF8000000208DF87D
:103410000100E946012003E057F8049B4FF0FF301C
:1034200061074FF0000401D40AE0641C44450DDA42
:103430008442FADB19F804100029F6D106E0641C76
:103440008442FCDB19F804100029F8D1264404E07A
:1034500019F8010B52460D999047641EF8D257E0B7
:1034600001CF4FF00A0B002802DA40422D2102E082
:10347000210504D52B218DF82410012103E0E1075B
:1034800005D02021F7E70DF1200908910CE000217B
:10349000F9E701CF4FF00A0BF9E75946FFF718FF9C
:1034A00001F1300209F8012D0028F6D1ADEB090039
:1034B00000F1200B600701D44FF00108D84502DD70
:1034C000A8EB0B0000E000208046002406E009A8DD
:1034D0005246005D0D999047641C761C0898844202
:1034E000F5DB04E0302052460D999047761CB8F188
:1034F0000001A8F10108F5DC05E019F8010B5246BE
:103500000D999047761CBBF10001ABF1010BF4DC87
:103510006D1C34E709280100383500080000002040
:10352000A400000040330008DC350008A40000209F
:103530009C9A0000503300080000000000000000CA
:10354000000000000000000000000000000000007B
:10355000000000000000000000000000000000006B
:10356000000000000000000000000000000000005B
:10357000000000000000000000000000000000004B
:10358000000000001F00000000000000AAAAAAAA74
:10359000000000000000000000000000000000002B
:1035A0000000000000000000F88F00000000000094
:1035B00000A24A0400000000000000000102030411
:1035C00006070809000000000102030401020304C9
:0C35D000060708090204060800000000BD
:0400000508000131BD
:00000001FF
