:020000040800F2
:10000000A89B0020913300081D0500081F0500086B
:1000100023050008270500082B0500080000000044
:10002000000000000000000000000000490100087E
:100030002F050008000000008D01000831050008B0
:10004000AB330008AB330008AB330008AB33000818
:10005000AB330008AB330008AB330008AB33000808
:10006000AB330008AB330008AB330008AB330008F8
:10007000AB330008AB330008AB330008AB330008E8
:10008000AB330008AB330008AB330008AB330008D8
:10009000AB330008AB330008AB330008AB330008C8
:1000A000AB330008AB330008AB330008AB330008B8
:1000B000AB330008AB330008AB330008AB330008A8
:1000C000AB330008AB330008AB330008AB33000898
:1000D000AB330008AB330008AB330008AB33000888
:1000E000AB330008AB330008AB330008AB33000878
:1000F000AB330008AB330008AB330008AB33000868
:10010000AB330008AB330008AB330008AB33000857
:10011000AB330008AB330008AB330008AB33000847
:10012000AB330008AB330008AB330008AB33000837
:10013000DFF810D004F048F800480047EB0300084F
:10014000AFF30080A89B0020224B19680868B0E834
:10015000F00F80F30988BFF36F8F4FF0000080F33A
:1001600011884EF00D0E7047000000000648006830
:10017000006880F3088862B661B6BFF34F8FBFF3A3
:100180006F8F00DF00BF00BF08ED00E0EFF30980D4
:10019000BFF36F8F0F4B1A6820E9F00F106008B59E
:1001A0004FF0500080F31188BFF34F8FBFF36F8F74
:1001B00000F0A8FF4FF0000080F31188BDE8084070
:1001C00019680868B0E8F00F80F30988BFF36F8FF3
:1001D000704700BF2C000020EFF30580704700003F
:1001E00008B54FF4A06003F0D5F925208DF8000084
:1001F00001208DF801008DF802008DF8030068469B
:1002000003F0CDF908BD00B585B00121042003F04D
:100210004FFF0121880303F04BFF4FF40070ADF84E
:10022000100018208DF8130003208DF8120004A987
:10023000514803F081FC4FF48060ADF810000420B9
:100240008DF8130004A94C4803F076FC4FF4E1301C
:1002500000900020ADF80400ADF80600ADF80800ED
:10026000ADF80C000C20ADF80A006946434803F0D5
:1002700042FA012240F22551404803F0D4FA01210C
:100280003E4803F0C4FA05B000BD70B504460D4603
:100290002946204603F028FB00BF8021204603F0BA
:1002A00091FB0028F9D070BD2DE9F04107460D46BD
:1002B0001646002405E0295D3846FFF7E6FF601C7E
:1002C000C4B2B442F7DB00BF4021384603F07AFBEA
:1002D0000028F9D0BDE8F08170B506460C4600252F
:1002E00000BF615D3046FFF7D0FF6D1C605D0028E8
:1002F000F7D100BF4021304603F064FB0028F9D05D
:1003000070BD2DE9F04105460C46260AE7B231469C
:10031000284603F0E9FA00BF8021284603F052FB8B
:100320000028F9D03946284603F0DEFA00BF8021C4
:10033000284603F047FB0028F9D0BDE8F08170B5EE
:1003400004460D46E1B20D4803F0CEFA00BF80210D
:100350000A4803F037FB0028F9D0204670BD10B5DD
:10036000044600BF2021054803F02CFB0028F9D0EB
:10037000024803F0BDFA10BD0008014000380140FA
:10038000002411E00021464A11604A1E084601F08F
:100390000FFB0121424A11602346641C0246414979
:1003A000096841A003F022FFECE708B500241BE038
:1003B000002405E03B480068401C3A490860641C82
:1003C00042488442F6DB002409E000200223024672
:1003D000014600903E48006801F0ACFB641C0A2C0A
:1003E000F3DB002000F08DFAE2E71CB5FFF70BFF0E
:1003F00000210A2001F074FF364908600322002121
:10040000012001F01FFF3449086000231A461946F5
:100410003148006802F000F83048022100236422CD
:10042000CDE900102EA1304800F002FA2848022140
:1004300000236422CDE900102CA12E4800F0F8F929
:1004400001F034F800BFFEE72B4B03602B4B0B6031
:100450006423136070470AE0002029490860294995
:10046000086001202849086028A003F0BFFEF3E7D8
:10047000044613E04FF0FF311748006802F06BFAB2
:10048000214623A003F0B2FE00231A461946124863
:10049000006801F0C1FF022000F008FDEAE700005B
:1004A000180000201C00002076616C3A25642C6E38
:1004B0006F7469667976616C7565203D2025642CC2
:1004C00069203D2025640D0A00000000A08601007F
:1004D000040000202400002028000020000000204C
:1004E0005441534B31000000AB0300085461736B5F
:1004F0003200000081030008280400209802002038
:100500000C00002010000020140000203300000028
:100510007072696E743A25730D0A0000704700BF4F
:10052000FEE700BFFEE700BFFEE700BFFEE7704743
:1005300010B502F0F6FD10BD00F1080141604FF06A
:10054000FF31816000F10801C1600161002101609B
:10055000704700210161704742684A6093688B6070
:10056000936859609160086103685B1C0360704781
:1005700010B502460B685C1C0CB9106907E002F16B
:10058000080000E04068446824689C42FAD9446846
:100590004C604C68A160886041600A611468641C0A
:1005A000146010BD01460A69D1E901309860D1E9B3
:1005B000010358605068884201D18868506000206B
:1005C00008611068401E10601068704710B5002464
:1005D00007E004EB8401FB4A02EB8100FFF7ACFF6C
:1005E000641C202CF5D3F848FFF7A6FFF748FFF767
:1005F000A3FFF748FFF7A0FFF648FFF79DFFF64877
:10060000FFF79AFFF048F5490860F048F4490860A0
:1006100010BD10B5044602F049FDF2480068401CC8
:10062000F0490860F048006840B9EF4804600846A7
:10063000006801280DD1FFF7C9FF0AE0EB48006808
:1006400038B9E9480068C06AE16A884201D8E648DA
:100650000460E7480068401CE549086094F82C10E5
:1006600001208840E34909680843E2490860E16ADB
:1006700001EB8101D34A02EB81014868A0608268E6
:10068000E260211D826851608160E16A01EB8101B5
:10069000CC4A02EB81026261E16A01EB8101C94A45
:1006A00052F82110491CE26A02EB8202C54B43F862
:1006B000221002F01EFDCD48006868B1CA480068EB
:1006C000C06AE16A884207D24FF08050CA49086088
:1006D000BFF34F8FBFF36F8F10BD2DE9FF5F8146D2
:1006E0000E469246DDE90E7B109CAAF10100216BBB
:1006F00001EB800828F0070808F0070008B901207E
:1007000000E0002028B940F25F32BCA1C2A003F093
:100710006DFD86B1002507E0715D04F1340041559F
:10072000705D00B902E06D1C102DF5D300BF0021F3
:100730004320015502E0002084F83400202F01D22C
:10074000012000E0002028B940F29632ABA1B2A00F
:1007500003F04CFD202F00D31F27E762201DFFF779
:10076000F8FE04F11800FFF7F4FE2461C7F1200041
:10077000A06164620020606484F8480049464046F5
:10078000039A02F0E9FB2060BBF1000F01D0CBF827
:100790000040BDE8FF9F2DE9F04F85B00746884631
:1007A00091469A46DDE90EB6109C0EB1012000E09C
:1007B000002028B940F2492290A197A003F016FD2D
:1007C0000CB1012000E0002028B940F24A228BA1A0
:1007D00091A003F00BFD4C20039003984C2801D10D
:1007E000012000E0002028B940F2522283A18AA013
:1007F00003F0FCFC00BFACB1A6B125462E6302207D
:1008000085F84900002004A953464A46CDE900B1C5
:10081000CDE9025041463846FFF75FFF2846FFF713
:10082000F8FE01E000200490049805B0BDE8F08FC8
:100830002DE9FF4F85B0804689461746DDE912ABAA
:10084000B80002F0F4FC064656B14C2002F0EFFC72
:1008500004460CB1266304E0304602F053FD00E08C
:1008600000248CB1002084F84900CDE900ABCDE92B
:1008700002403A4649464046089BFFF72EFF204675
:10088000FFF7C7FE012501E04FF0FF35284609B00C
:10089000BDE8F08F51480068006808B9012000E009
:1008A000002020B14FF0FF305F49086005E04B4861
:1008B0000068C06800685C490860704710B504466D
:1008C00094F8490030B9206B02F01CFD204602F07C
:1008D00019FD15E094F84900012803D1204602F0E3
:1008E00011FD0DE094F84900022801D1012000E03B
:1008F000002028B940F6937240A147A003F076FC8F
:1009000010BD70B5054602F0D1FB15B93648006838
:1009100000E028460446201DFFF744FE78B9E06A4F
:1009200000EB8000274951F8200040B994F82C10C2
:10093000012088402F49096881432E480160A06A40
:1009400018B104F11800FFF72DFE29480068401C7B
:100950002749086024480068844209D1211D1D48A8
:10096000FFF7FAFD31480068401C3049086009E093
:100970001C480068401E1B4908602046FFF79EFF88
:10098000FFF788FF02F0B5FB18480068C0B11648B1
:100990000068844214D12648006808B9012000E0AC
:1009A000002028B940F2D34214A11BA003F01EFC82
:1009B0004FF0805010490860BFF34F8FBFF36F8F27
:1009C00070BD000074040020F40600200807002019
:1009D0001C070020300700204407002030000020C2
:1009E000340000203C0000202C00002048000020A3
:1009F000580000204400002004ED00E02E2E5C464C
:100A000072656552544F535C536F757263655C74C5
:100A100061736B732E6300004572726F723A2573B7
:100A20002C25640D0A0000005C0000203800002026
:100A3000680000202DE9F0414FF00008FC480068F4
:100A400000287DD1FB480068451CFA480560FDB9C7
:100A5000F9480068006808B9012000E0002038B9B2
:100A600040F6BE22AFF26C01AFF2540003F0BEFBC1
:100A7000F1480768F1480068EF490860EF480760EF
:100A8000EF480068401CEE490860FFF703FF00BF15
:100A9000EC480068854277D300BFE74800680068EB
:100AA00008B9012000E0002020B14FF0FF30E549F7
:100AB000086068E0E0480068C068C4686668B542DD
:100AC00002D2E04806605EE06069D4E902128A6002
:100AD000D4E902214A60211D42688A4201D1E168BD
:100AE0004160002262610168491E0160A06A98B1FC
:100AF000A06AD4E907128A60D4E907214A6004F1A8
:100B0000180142688A4201D1216A41600022A26232
:100B10000168491E016000BF94F82C100120884034
:100B2000C94909680843C8490860E16A01EB8101C5
:100B3000C64A02EB81014868A0608268E26000E07A
:100B400034E0211D826851608160E16A01EB81011E
:100B5000BE4A02EB81026261E16A01EB8101BB4A9C
:100B600052F82110491CE26A02EB8202B74B43F8AB
:100B70002210B749E06A0968C96A88428DD34FF0EC
:100B800001088AE700E000BFB1480068C06A00EBD6
:100B90008000AE4951F82000012801D94FF001082A
:100BA000AC48006808B14FF0010804E0AA480068AA
:100BB000401CA94908604046BDE8F08170B500249A
:100BC00000269B48006838B940F6AA02AFF2D4115B
:100BD000AFF2BC1003F00AFB02F068FA9448006818
:100BE000401E934908600846006800287ED19B4853
:100BF000006800287AD05BE09948C068C468A06AA1
:100C0000D4E907128A60D4E907214A6004F1180187
:100C100042688A4201D1216A41600022A2620168D1
:100C2000491E01606069D4E902128A60D4E9022198
:100C30004A60211D42688A4201D1E1684160002278
:100C400062610168491E016094F82C1001208840FF
:100C50007D49096808437C490860E16A01EB81012C
:100C60007A4A02EB81014868A0608268E260211D37
:100C7000826851608160E16A01EB8101734A02EB95
:100C800081026261E16A01EB8101704A52F8211030
:100C9000491CE26A02EB82026C4B43F822106C4959
:100CA000E06A0968C96A884202D30120694908607C
:100CB0006B48006808B9012000E0002000289BD0A4
:100CC0000CB1FFF7E7FD6448056865B100BFFFF7A9
:100CD000B1FE10B101205F4908606D1E002DF6D1F4
:100CE00000205D4908605B48006800E008E038B11A
:100CF000012630075B490860BFF34F8FBFF36F8F4A
:100D000002F0F7F9304670BD2DE9F04105460E4678
:100D1000484807684E480068001DFFF743FC50B97B
:100D20004B48006890F82C1001208840464909681B
:100D3000814345480160681CD8B9D6B14A49486822
:100D4000434909688860424982680968CA60404925
:100D50000968091D826851603D490968091D816063
:100D6000414A3B4909684A6111460968491C1160BA
:100D70001AE07C19364800684460BC4207D2344807
:100D80000168091D2D480068FFF7F2FB0CE03048B0
:100D90000168091D28480068FFF7EAFB2948006838
:100DA000844201D227480460BDE8F08120480068F1
:100DB000401C1F49086070472DE9F04704460F4664
:100DC0004FF000093CB94FF49D62AFF2D031AFF261
:100DD000B83003F00BFA0FB1012000E0002038B961
:100DE00040F2E942AFF2EC31AFF2D43003F0FEF959
:100DF0000F48006808B9012000E0002038B940F22F
:100E0000EA42AFF20841AFF2F03003F0EFF9FFF73A
:100E1000CDFF084806682068C5192068B04225D96A
:100E20002068A84229D9B54227D94FF0010924E00A
:100E30006800002040000020300000203400002026
:100E4000540000205C0000204400002074040020B6
:100E50002C000020500000204C0000203C0000200E
:100E60001C07002004ED00E0440700202068A84291
:100E700001D8B54201D94FF001092560B9F1000F41
:100E800003D0A81B0021FFF73FFFFFF797FE804626
:100E9000B8F1000F07D14FF08050F7490860BFF359
:100EA0004F8FBFF36F8F4846BDE8F08770B504469B
:100EB0000025BCB1F148006808B9012000E000201D
:100EC00038B94FF4A862AFF2CC41AFF2B44003F0AE
:100ED0008DF9FFF76BFF00212046FFF715FFFFF7A5
:100EE0006DFE05463DB94FF08050E3490860BFF301
:100EF0004F8FBFF36F8F70BD2DE9F04707463E4619
:100F00003EB940F26C52AFF20C51AFF2F44003F034
:100F10006DF9DB480068864201D100242DE002F023
:100F2000C5F87569D748D0F80080D748D0F8009048
:100F300002F0DFF8454501D04D4501D102241CE007
:100F4000D248854212D1B06A70B90324002007E06C
:100F500006F14801095C012901D1022402E0401C8C
:100F60000128F5DB00BF08E0022406E0C8488542FE
:100F700000D00DB9042400E001242046BDE8F0872C
:100F800070B5044602F092F814B9BD48006800E05C
:100F900020460646F56A02F0ACF8284670BD2DE9F9
:100FA000F041054602F0D5F800BF5021EFF3118063
:100FB00081F31188BFF34F8FBFF36F8F00BF0446DB
:100FC00015B9AF48006800E028460746FE6A00BF32
:100FD00084F3118800BF3046BDE8F0812DE9F04769
:100FE00080460D464FF00009202D01D2012000E07F
:100FF000002038B940F20C62AFF20061AFF2E85065
:1010000003F0F4F8202D00D31F2502F04FF8B8F1BB
:10101000000F02D19A48006800E040460446E66AA4
:10102000AE426BD0B5420BD99548006884420DD0D2
:1010300093480068C06AA84208D84FF0010905E04B
:101040008F480068844201D14FF00109E76AE562E8
:10105000A06900F0004010B9C5F12000A06107EBC5
:1010600087018C4A02EB81016069884201D101202D
:1010700000E00020B0B3201DFFF794FA30B9012042
:10108000B8408549096881438348016094F82C1071
:10109000012088408049096808437F490860E16A67
:1010A00001EB81017B4A02EB81014868A060826804
:1010B000E260211D826851608160E16A01EB81017B
:1010C000744A02EB81026261E16A01EB8101714ABB
:1010D00052F82110491CE26A02EB82026D4B43F880
:1010E000221000BFB9F1000F07D04FF080506249C5
:1010F0000860BFF34F8FBFF36F8F00BF01F0F9FFA0
:10110000BDE8F08710B55D48006818B1012063495B
:1011100008602FE00020614908605F480068B0FA6D
:1011200080F0C0F11F0404EB84005A4951F82000FC
:1011300008B1012000E0002038B940F6F932AFF2E2
:101140004471AFF22C7003F051F804EB8401514A62
:1011500002EB810041684968416000F10801426882
:101160008A4202D14168496841604168C968444A7D
:10117000116000BF10BD70B5054601F097FF15B9AD
:101180003F48006800E028460446201DFFF70AFAA1
:1011900078B9E06A00EB80003E4951F8200040B980
:1011A00094F82C10012088403B49096881433A4853
:1011B0000160A06A18B104F11800FFF7F3F9211DCE
:1011C0003248FFF7C9F9002009E004F14801095C41
:1011D000012903D1002204F148010A54401C0128CE
:1011E000F3DB01F086FF2E48006828B101F05EFFB6
:1011F000FFF750FB01F07DFF21480068844226D1B3
:1012000027480068B8B11D48006808B9012000E00F
:10121000002038B940F2F462AFF62001AFF60800C2
:1012200002F0E4FF4FF0805013490860BFF34F8F86
:10123000BFF36F8F0BE0154800681A4909688842B0
:1012400003D100200E49086001E0FFF75BFF70BD8D
:1012500070B5054600262C463DB940F21E72AFF629
:101260006401AFF64C0002F0C1FF08496069884292
:101270001AD1012019E0000004ED00E06800002010
:101280002C00002030000020340000204407002003
:10129000300700207404002044000020500000208B
:1012A000480000203C000020002070B1FE49A06AE8
:1012B000884201D1012000E0002030B9A06A08B9BD
:1012C000012000E0002000B10126304670BD70B55D
:1012D00005462C463DB94FF4E962AFF6E001AFF6A2
:1012E000C80002F083FFF1480068844245D0002C1A
:1012F00043D001F0DBFE2046FFF7AAFFD8B3201D44
:10130000FFF750F994F82C1001208840E84909684B
:101310000843E7490860E16A01EB8101E54A02EB15
:1013200081014868A0608268E260211D8268516086
:101330008160E16A01EB8101DE4A02EB81026261B8
:10134000E16A01EB8101DB4A52F82110491CE26A93
:1013500002EB8202D74B43F82210D449E06A0968B5
:10136000C96A884207D34FF08050D3490860BFF361
:101370004F8FBFF36F8F01F0BCFE70BD2DE9F041C0
:101380000646002734463EB940F27F72AFF694110C
:10139000AFF67C1002F02AFF01F0DBFE00BF502008
:1013A000EFF3118180F31188BFF34F8FBFF36F8F7D
:1013B00000BF0D462046FFF74BFF002841D0BF4835
:1013C0000068002838D1B949E06A0968C96A8842CA
:1013D00003D301270120BA490860201DFFF7E2F876
:1013E00094F82C1001208840B14909680843B0499D
:1013F0000860E16A01EB8101AE4A02EB81014868B5
:10140000A0608268E260211D826851608160E16AAB
:1014100001EB8101A74A02EB81026261E16A01EB03
:101420008101A44A52F82110491CE26A02EB8202AF
:10143000A04B43F8221004E004F118019A48FFF78A
:101440008BF800BF85F3118800BF3846BDE8F081F6
:1014500010B516E001F02AFE9A48C068C468201D45
:10146000FFF7A0F898480068401E97490860974821
:101470000068401E9549086001F03BFE2046FFF7DA
:101480001DFA924800680028E4D110BD00BFFFF7A4
:10149000DFFF884800680128F9D94FF0805086495D
:1014A0000860BFF34F8FBFF36F8FF0E710B586B0C2
:1014B00000200590049003AA04A905A8FEF7C4FF24
:1014C0000022DDE904101346CDE90021029080A13D
:1014D0008148039AFFF75FF9804908600846006871
:1014E00008B1012400E00024012C15D100BF5020D8
:1014F00080F31188BFF34F8FBFF36F8F00BF4FF0A2
:10150000FF3077490860012076490860002076495D
:10151000086001F042FD0DE0601C08B1012000E010
:10152000002038B940F63702AFF63031AFF6183048
:1015300002F05CFE6D48006806B010BD10B500BF3B
:10154000502080F31188BFF34F8FBFF36F8F00BF20
:1015500000206449086001F098FD10BD62490868E8
:10156000704770B501F0F5FD00255F48046820461E
:1015700070BD55480068704770B5044614B94B48B3
:10158000006800E0204605463DB94FF41562AFF60D
:101590009431AFF67C3002F029FE05F1340070BDC5
:1015A00070B504464548006808B9012000E00020F5
:1015B00038B940F64B22AFF6BC31AFF6A43002F09A
:1015C00015FEFFF7F3FB4A480068204448490860CD
:1015D000FFF7F4FA0546284670BD70B504460D467F
:1015E0003CB940F61342AFF6EC31AFF6D43002F01E
:1015F000FDFD2E48016818312046FEF7B9FF012194
:101600002846FFF781FB70BD70B504460D461646AF
:101610003CB940F62D42AFF61C41AFF6044002F053
:10162000E5FD2648006808B1012000E0002038B937
:1016300040F63142AFF63C41AFF6244002F0D6FD11
:1016400045F00040194909688861606817490968D0
:10165000C8611649826809680A6214490968183124
:101660008268516011490968183181600F49096821
:101670008C622168491C216001213046FFF744FB40
:1016800070BD70B50646F068C4683CB940F6794252
:10169000AFF69841AFF6804002F0A8FDA06AD4E909
:1016A00007128A6026E000001C0700202C000020A2
:1016B000440000207404002004ED00E068000020D5
:1016C00050000020300700203C000020380000209F
:1016D00049444C45000000008D14000860000020C3
:1016E0005C00002048000020400000206400002032
:1016F0004C000020D4E907214A6004F11801426837
:101700008A4201D1216A41600022A2620168491E19
:101710000160FD48006800283DD16069D4E90212EB
:101720008A60D4E902214A60211D42688A4201D1BF
:10173000E1684160002262610168491E016094F81D
:101740002C1001208840F14909680843EF490860DE
:10175000E16A01EB8101EE4A02EB81014868A06079
:101760008268E260211D826851608160E16A01EB5C
:101770008101E74A02EB81026261E16A01EB8101CA
:10178000E34A52F82110491CE26A02EB8202E04B64
:1017900043F8221010E0DF494868E0618268226265
:1017A00004F11801826851608160DA4AA262114630
:1017B0000968491C116000BFD749E06A0968C96A15
:1017C000884204D901250120D449086000E00025A1
:1017D000284670BD70B505460E46CB48006808B176
:1017E000012000E0002038B940F6B142AFF6F451D4
:1017F000AFF6DC5002F0FAFC46F000402860EC68DE
:101800003CB940F6B942AFF60C61AFF6F45002F0C5
:10181000EDFC2869D5E901219160D5E901125160FB
:101820004168A94201D1A96841600021296101688C
:10183000491E01606069D4E902128A60D4E902217C
:101840004A60211D42688A4201D1E168416000225C
:1018500062610168491E016094F82C1001208840E3
:10186000AA4909680843A9490860E16A01EB8101B6
:10187000A74A02EB81014868A0608268E260211DEE
:10188000826851608160E16A01EB8101A04A02EB4C
:1018900081026261E16A01EB81019D4A52F82110E7
:1018A000491CE26A02EB8202994B43F822109A49E2
:1018B000E06A0968C96A884202D90120974908602C
:1018C00070BD10B504463CB940F6DD42AFF6D461B8
:1018D000AFF6BC6002F08AFC01F0E8FB90480068BB
:1018E000206090480068606001F003FC10BD8C49E6
:1018F000096801608B4909684160704770B5054609
:101900000C463DB940F6F442AFF61071AFF6F86000
:1019100002F06CFC3CB940F6F542AFF62071AFF630
:10192000087002F063FC01F0C1FB7E480368686840
:101930001A1A2068401C08B9002619E0784928685E
:101940000968884206D06868984203D801260020BA
:1019500020600DE02068904207D92068801A20603E
:101960002846FFF7C4FF002602E000202060012681
:1019700001F0BFFB304670BD012068490860704728
:101980006949096809B9012005E05F49096809B991
:10199000022000E0002070475F49096888695E49BD
:1019A0000968C96AC1F120015B4A126891617047F8
:1019B0002DE9F04104460F4616460CB9012000E01F
:1019C000002038B941F25D22AFF6D071AFF6B870A1
:1019D00002F00CFC01F06AFB4F480068443050F8FC
:1019E000240080B901214C4800684830015556B1A7
:1019F0003046FFF789F94FF080504C490860BFF33B
:101A00004F8FBFF36F8F01F074FB01F04FFB424823
:101A10000068443050F824506DB137B100213E4881
:101A20000068443040F8241005E0681E3A4909680F
:101A3000443141F8240000213748006848300155FE
:101A400001F057FB2846BDE8F0812DE9F047044638
:101A50000F4690461D46DDF820900CB9012000E0AD
:101A6000002030B941F2A722314901F11C0002F0F7
:101A7000BDFB01F01BFB284800684830005D0228D0
:101A80001AD025490968443101EB84000168B94343
:101A9000016001212048006848300155B9F1000F6C
:101AA0000AD04846FFF730F94FF080501F490860D0
:101AB000BFF34F8FBFF36F8F01F01BFB01F0F6FAFE
:101AC0002DB115480068443050F8240028601248B1
:101AD00000684830005D022801D0002609E00E4968
:101AE0000968443101EB8400016821EA08010160C2
:101AF00001260021084800684830015501F0F9FA34
:101B00003046BDE8F0870000680000204400002057
:101B1000740400201C0700202C000020500000202E
:101B200054000020400000204800002004ED00E0A8
:101B3000FC0900082DE9F05F07460D461646984659
:101B4000DDF828A04FF0010B0DB9012000E00020C6
:101B500030B941F2FF22FE4901F11C0002F046FBC0
:101B600037B94FF49852FA4901F11C0002F03EFBDC
:101B70003C4601F09BFABAF1000F05D004F1440095
:101B800050F82500CAF8000004F1480010F805904C
:101B900002214155B8F1050F29D2DFE808F02703EB
:101BA0000D171C0004F1440050F82500304304F1E7
:101BB000440141F8250029E004F1440050F82500D3
:101BC000401C04F1440141F825001FE004F14400E9
:101BD00040F825601AE0B9F1020F04D004F1440086
:101BE00040F8256001E04FF0000B0FE00EE0D9480F
:101BF000006808B9012000E0002030B941F2353218
:101C0000D34901F11C0002F0F1FA00BF00BFB9F1A5
:101C1000010F57D16069D4E902128A60D4E9022128
:101C20004A60211D42688A4201D1E1684160002278
:101C300062610168491E016094F82C1001208840FF
:101C4000C54909680843C4490860E16A01EB81019C
:101C5000C24A02EB81014868A0608268E260211DEF
:101C6000826851608160E16A01EB8101BB4A02EB4D
:101C700081026261E16A01EB8101B84A52F82110E8
:101C8000491CE26A02EB8202B44B43F82210A06ABC
:101C900008B9012000E0002030B941F24432AC49DB
:101CA00001F11C0002F0A2FAAD49E06A0968C96AB4
:101CB000884207D94FF08050AA490860BFF34F8F80
:101CC000BFF36F8F01F015FA5846BDE8F09F2DE97C
:101CD000F84F80460D4617469946DDF828B001209A
:101CE0000090B8F1000F06D141F27C32984901F121
:101CF0001C0002F07BFA0DB9012000E0002030B991
:101D000041F27D32924901F11C0002F06FFA01F0BC
:101D100020FA444600BF5021EFF3118081F311886F
:101D2000BFF34F8FBFF36F8F00BF0646BBF1000FAD
:101D300005D004F1440050F82500CBF8000004F170
:101D4000480010F805A002214155B9F1050F29D22C
:101D5000DFE809F027030D171C0004F1440050F8D8
:101D60002500384304F1440141F8250029E004F13D
:101D7000440050F82500401C04F1440141F82500BE
:101D80001FE004F1440040F825701AE0BAF1020F98
:101D900004D004F1440040F8257001E000200090D8
:101DA0000FE00EE06B48006808B9012000E0002059
:101DB00030B941F2C432664901F11C0002F016FA52
:101DC00000BF00BFBAF1010F6DD1A06A08B90120B0
:101DD00000E0002030B941F2CF325D4901F11C0032
:101DE00002F004FA60480068E8BB6069D4E90212B6
:101DF0008A60D4E902214A60211D42688A4201D1E9
:101E0000E1684160002262610168491E016094F846
:101E10002C10012088405049096808434E49086049
:101E2000E16A01EB81014D4A02EB81014868A06043
:101E30008268E260211D826851608160E16A01EB85
:101E40008101464A02EB81026261E16A01EB810194
:101E5000424A52F82110491CE26A02EB82023F4BCF
:101E600043F8221011E0FFE740494868E0618268CA
:101E7000226204F118018268516081603B4AA262CB
:101E800011460968491C116000BF3549E06A0968BC
:101E9000C96A884207D90B9810B101210B980160DB
:101EA00001203349086000BF86F3118800BF009805
:101EB000BDE8F88F2DE9F04705460E46904635B946
:101EC00041F20342224901F11C0002F08FF90EB9E0
:101ED000012000E0002030B941F204421C4901F128
:101EE0001C0002F083F901F034F92C4600BF5021A8
:101EF000EFF3118081F31188BFF34F8FBFF36F8F22
:101F000000BF074604F1480010F8069002218155F1
:101F1000001F50F82600401C04F1440141F826003F
:101F2000B9F1010F7DD1A06A08B9012000E00020BD
:101F300030B941F22A42064901F11C0002F056F97B
:101F400009480068002850D16069D4E9021211E004
:101F5000FC09000840000020440000207404002018
:101F60002C00002004ED00E0680000201C07002089
:101F7000500000208A60D4E902214A60211D426895
:101F80008A4201D1E1684160002262610168491E14
:101F9000016094F82C10012088404B4909680843DF
:101FA00049490860E16A01EB8101484A02EB81017D
:101FB0004868A0608268E260211D8268516081608B
:101FC000E16A01EB8101414A02EB81026261E16A4F
:101FD00001EB81013D4A52F82110491CE26A02EBF3
:101FE00082023A4B43F8221010E039494868E06118
:101FF0008268226204F11801826851608160344A6B
:10200000A26211460968491C116000BF3149E06AAB
:102010000968C96A88420AD9B8F1000F04D00120C2
:1020200000E004E0C8F8000001202B49086000BF70
:1020300087F3118800BFBDE8F0872DE9F04106461F
:102040000C460CB9012000E0002030B941F25A42A0
:10205000224901F11C0002F0C9F816B91D480068B8
:1020600000E03046074601F021F807F14800005D26
:10207000022805D1002107F148000155012500E0A3
:10208000002501F036F82846BDE8F0812DE9F04141
:1020900006460C46174616B90E48006800E0304662
:1020A000054601F003F805F1440050F8248050F88B
:1020B0002400B84305F1440141F8240001F019F867
:1020C0004046BDE8F0810000440000207404002078
:1020D0001C0700202C00002050000020FC090008F4
:1020E0002DE9F04105460E4601272C462CB94FF448
:1020F0008872F1A1F7A002F079F8002C42D0E06BD1
:1021000000283FD04FF0FF31E06BB1FBF0F0216CC5
:10211000884237D300F0CAFFD4E90F12206801FBD0
:102120000200A0600020A06320686060E06B401E99
:10213000226C216800FB0211E160FF2084F844005A
:1021400084F845009EB9206908B9012000E000200C
:10215000A8B904F11000FFF794FA80B14FF0805055
:10216000E0490860BFF34F8FBFF36F8F07E004F1C2
:102170001000FEF7E1F904F12400FEF7DDF900F0AC
:10218000B8FF00E000270FB1012000E0002028B9CF
:102190004FF4A272C8A1CFA002F028F83846BDE8DB
:1021A000F0812DE9F04106460D4617469846069CFB
:1021B0000DB9246000E02760E66325640121204614
:1021C000FFF78EFFBDE8F0812DE9F84380460E460B
:1021D00017461C46DDF8209000252CB94FF4AC7250
:1021E000B5A1BCA002F002F8B8F1000F20D0FCB1FC
:1021F00007B1EEB107B9DEB9482000900098482831
:1022000001D1012000E0002028B94FF4B572AAA145
:10221000B0A001F0EBFF00BF2546012085F8460085
:102220004B463A46314640460095FFF7BAFF06E076
:102230002DB940F28112A0A1A6A001F0D7FF284637
:10224000BDE8F8832DE9F84305460E4617460024FD
:10225000FDB1601EB0FBF5F0B0421AD305FB06F0ED
:1022600010F1490F15D805FB06F909F1480000F0F7
:10227000DEFF0446A4B1A04608F14808002084F817
:1022800046003B464246314628460094FFF789FF08
:1022900006E02CB940F2C51287A18EA001F0A6FF7E
:1022A0002046BDE8F883F8B505460E4617460024DB
:1022B0006DB1AE420BD802203B4600221146009081
:1022C0002846FFF781FF044644B1A66306E02CB917
:1022D00040F2F72278A17FA001F088FF2046F8BDE8
:1022E00070B505460E46002455B1AE4208D802220C
:1022F00000212846FFF7A6FF044644B1A66306E086
:102300002CB940F21A326CA172A001F06FFF204686
:1023100070BD70B5044600F0C9FE94F9455010E058
:10232000606A08B9012000E0002038B904F12400F7
:10233000FFF7A7F918B1FFF71FFB00E003E0681EE5
:1023400045B2002DECDC00BFFF2084F8450000F012
:10235000D0FE00F0ABFE94F9445010E0206908B9BB
:10236000012000E0002048B904F11000FFF789F9CE
:1023700008B1FFF701FB681E45B200E001E0002D47
:10238000ECDC00BFFF2084F8440000F0B2FE70BD1A
:1023900070B5054600F08AFEA86BE96B884201D152
:1023A000012400E0002400F0A4FE204670BD2DE9C9
:1023B000F04104460F4615464FF00008A66B206C0E
:1023C00028B37DB93946226C606801F0D5FE216CD6
:1023D000606808446060D4E90101884217D320682E
:1023E000606014E03946226CE06801F0C5FE216CA3
:1023F000E068411AE1602168E068884203D2216CFC
:10240000A068411AE160022D01D106B1761E701C50
:10241000A0634046BDE8F0812DE9FF4383B0064646
:1024200088461D464FF0000934462CB940F22D3243
:1024300021A128A001F0DAFEB8F1000F01D1206C33
:1024400008B9012000E0002028B940F22E321AA17C
:1024500020A001F0CBFE022D02D1E06B012801D1BA
:10246000012000E0002028B940F22F3212A119A06B
:1024700001F0BCFEFFF784FA08B9059808B90120FD
:1024800000E0002028B940F232320BA111A001F087
:10249000ADFE00BF00F00AFEA06BE16B884201D3E5
:1024A000022D40D12A4641462046FFF780FF0746CD
:1024B000606AC8B9012018E02E2E5C46726565522C
:1024C000544F535C536F757263655C7175657565C8
:1024D0002E6300004572726F723A25732C25640DCD
:1024E0000A00000004ED00E0002068B904F12400B7
:1024F000FFF7C7F888B14FF08050FE490860BFF37E
:102500004F8FBFF36F8F08E03FB14FF08050F94914
:102510000860BFF34F8FBFF36F8F00F0EAFD01201B
:1025200007B0BDE8F083059818B900F0E2FD00207F
:10253000F6E7B9F1000F04D101A8FFF7D8F94FF081
:10254000010900F0D6FDFEF731FC00F0AFFD94F973
:102550004400401C10B9002084F8440094F9450060
:10256000401C10B9002084F8450000F0C2FD05A908
:1025700001A8FFF7C3F9F8B92046FFF709FFA8B192
:1025800004F110000599FFF728F82046FFF7C1FE77
:10259000FEF714FB00287FF47DAF4FF08050D54943
:1025A0000860BFF34F8FBFF36F8F73E72046FFF7CD
:1025B000B0FEFEF703FB6DE72046FFF7AAFEFEF72D
:1025C000FDFA0020ACE72DE9F84F07468B46904610
:1025D0001E463C463CB940F20142AFF22411AFF234
:1025E0000C1001F003FEBBF1000F01D1206C08B903
:1025F000012000E0002038B940F20242AFF2481159
:10260000AFF2301001F0F2FD022E02D1E06B012892
:1026100001D1012000E0002038B940F20342AFF2BE
:102620006811AFF2501001F0E1FD00F092FD00BF23
:102630005021EFF3118081F31188BFF34F8FBFF367
:102640006F8F00BF0546A06BE16B884201D3022E5D
:1026500034D194F945A0A06B0090324659462046EB
:10266000FFF7A5FE0AF1010088B9606A08B90120E8
:1026700000E0002050B904F12400FFF702F828B16F
:10268000B8F1000F02D00120C8F8000013E0BAF141
:102690007F0F01D0012000E0002038B940F28C42C9
:1026A000AFF2EC11AFF2D41001F0A0FD0AF101007D
:1026B00040B284F845004FF0010901E04FF00009F5
:1026C00000BF85F3118800BF4846BDE8F88F2DE9AB
:1026D000F04706460F4634463CB940F2AC42AFF2F2
:1026E0002821AFF2102001F081FD206C08B90120F3
:1026F00000E0002038B94FF49662AFF24421AFF207
:102700002C2001F073FD206808B9A06808B90120E9
:1027100000E0002038B940F2B542AFF26421AFF2D8
:102720004C2001F063FD00F014FD00BF5021EFF3D9
:10273000118081F31188BFF34F8FBFF36F8F00BFFC
:102740000546D4F838A0E06B50452DD994F9459052
:102750000AF10100A06309F1010070B9606A08B9CB
:10276000012000E00020E0B904F12400FEF789FF19
:10277000B8B1B7B10120386013E0B9F17F0F01D0D3
:10278000012000E0002038B940F23452AFF2D821E5
:10279000AFF2C02001F02AFD09F1010040B284F837
:1027A00045004FF0010801E04FF0000800BF85F33D
:1027B000118800BF4046BDE8F08770B5054600F0BF
:1027C00075FCA86B08B9012400E0002400F091FC1E
:1027D000204670BD70B504460D46206C70B1216C6A
:1027E000E0680144E160D4E90210884201D3216825
:1027F000E1602846226CE16801F0BEFC70BD2DE965
:10280000F74183B005460E464FF000082C463CB910
:102810004FF4AA62AFF26031AFF2483001F0E6FC4B
:102820000EB9206C08B9012000E0002038B940F250
:102830005452AFF27C31AFF2643001F0D7FCFFF7B5
:102840009FF808B9059808B9012000E0002038B9C0
:1028500040F25952AFF2A031AFF2883001F0C6FC1D
:1028600000BF00F023FCA76BF7B131462046FFF70D
:10287000B1FF781EA063206908B9012000E00020A4
:1028800060B904F11000FEF7FCFE38B14FF0805043
:1028900018490860BFF34F8FBFF36F8F00F029FC1A
:1028A000012006B0BDE8F081059818B900F021FCC0
:1028B0000020F6E7B8F1000F04D101A8FFF717F8E0
:1028C0004FF0010800F015FCFEF770FA00F0EEFB87
:1028D00094F94400401C10B9002084F8440094F995
:1028E0004500401C10B9002084F8450000F001FCB0
:1028F00005A901E004ED00E001A8FEF7FFFFF0B933
:102900002046FFF75AFFA0B104F124000599FEF715
:1029100064FE2046FFF7FDFCFEF750F90028A0D129
:102920004FF08050F9490860BFF34F8FBFF36F8FAE
:1029300097E72046FFF7EDFCFEF740F991E72046C8
:10294000FFF7E7FCFEF73AF92046FFF736FF0028CD
:1029500087D00020A5E7F3B583B0054600272C46B5
:102960003CB940F2E252AFF2B041AFF2984001F010
:102970003DFC206C08B9012000E0002038B940F28D
:10298000E652AFF2CC41AFF2B44001F02FFCFEF7BB
:10299000F7FF08B9049808B9012000E0002038B911
:1029A00040F2EB52AFF2F041AFF2D84001F01EFC22
:1029B00000BF00F07BFBA66BCEB1701EA063206948
:1029C00008B9012000E0002060B904F11000FEF712
:1029D00058FE38B14FF08050CC490860BFF34F8F9C
:1029E000BFF36F8F00F085FB012005B0F0BD0498A8
:1029F00018B900F07EFB0020F7E71FB901A8FEF729
:102A000076FF012700F075FBFEF7D0F900F04EFBD2
:102A100094F94400401C10B9002084F8440094F953
:102A20004500401C10B9002084F8450000F061FB0F
:102A300004A901A8FEF762FFF0B92046FFF7BDFE2A
:102A4000A0B104F124000499FEF7C7FD2046FFF76A
:102A500060FCFEF7B3F80028ABD14FF08050AB49D3
:102A60000860BFF34F8FBFF36F8FA2E72046FFF7D9
:102A700050FCFEF7A3F89CE72046FFF74AFCFEF760
:102A80009DF82046FFF799FE002892D00020ACE781
:102A90002DE9F74382B005460E464FF000082C465C
:102AA0003CB940F2BB62AFF2F051AFF2D85001F046
:102AB0009DFB0EB9206C08B9012000E0002038B958
:102AC00040F2BF62AFF21061AFF2F85001F08EFB3E
:102AD000FEF756FF08B9049808B9012000E000206D
:102AE00038B940F2C462AFF23061AFF2186001F061
:102AF0007DFB00BF00F0DAFAD4F83890B9F1000F8E
:102B00001ED0E76831462046FFF764FEE760606A42
:102B100008B9012000E0002060B904F12400FEF7AC
:102B2000B0FD38B14FF0805078490860BFF34F8F47
:102B3000BFF36F8F00F0DDFA012005B0BDE8F08330
:102B4000049818B900F0D5FA0020F6E7B8F1000FA4
:102B500004D16846FEF7CBFE4FF0010800F0C9FA39
:102B6000FEF724F900F0A2FA94F94400401C10B9D1
:102B7000002084F8440094F94500401C10B900205E
:102B800084F8450000F0B5FA04A96846FEF7B6FEE1
:102B9000F0B92046FFF711FEA0B104F1240004991A
:102BA000FEF71BFD2046FFF7B4FBFEF707F80028F1
:102BB000A0D14FF0805055490860BFF34F8FBFF34D
:102BC0006F8F97E72046FFF7A4FBFDF7F7FF91E72C
:102BD0002046FFF79EFBFDF7F1FF2046FFF7EDFDD6
:102BE000002887D00020A8E72DE9F05F06468A4636
:102BF000174634463CB94FF4EA62AFF24471AFF283
:102C00002C7001F0F3FABAF1000F01D1206C08B971
:102C1000012000E0002038B940F25172AFF2687133
:102C2000AFF2507001F0E2FA00F093FA00BF5021C9
:102C3000EFF3118081F31188BFF34F8FBFF36F8FD4
:102C400000BF0546D4F838B0BBF1000F31D094F97D
:102C5000449051462046FFF7BDFDABF10100A06353
:102C600009F1010070B9206908B9012000E00020D5
:102C7000E0B904F11000FEF704FDB8B1B7B10120CE
:102C8000386013E0B9F17F0F01D0012000E000208F
:102C900038B940F29472AFF2E071AFF2C87001F04F
:102CA000A5FA09F1010040B284F844004FF0010890
:102CB00001E04FF0000800BF85F3118800BF4046D7
:102CC000BDE8F09F2DE9F0470646884634463CB9FA
:102CD00040F2AF72AFF62001AFF6080001F086FABD
:102CE000B8F1000F01D1206C08B9012000E00020EC
:102CF00038B94FF4F662AFF64001AFF6280001F0A4
:102D000075FA206C20B1012003E0000004ED00E022
:102D1000002038B940F2B172AFF66401AFF64C0052
:102D200001F064FA00F015FA00BF5021EFF31180B2
:102D300081F31188BFF34F8FBFF36F8F00BF05463C
:102D4000A06B48B1D4F80C9041462046FFF742FDF5
:102D5000C4F80C90012700E0002700BF85F311881C
:102D600000BF3846BDE8F08770B504463CB940F274
:102D7000E272AFF6BC01AFF6A40001F037FA00F042
:102D800095F9A56B00F0B5F9284670BD70B50446FD
:102D900025463DB940F2F372AFF6E401AFF6CC0040
:102DA00001F024FA00F082F9D5E90E10461A00F07D
:102DB000A0F9304670BD70B5044625463DB940F6D1
:102DC0000402AFF60C11AFF6F40001F00FFAAE6B8F
:102DD000304670BD70B505463DB940F61532AFF6C8
:102DE0002811AFF6101001F001FA00240EE04D4852
:102DF00000EBC4004068A84207D10020494941F8CF
:102E0000340001EBC401486002E0641C0A2CEED3DC
:102E100000BF70BD70B5044625463DB940F60F02AF
:102E2000AFF66C11AFF6541001F0E0F92846FFF749
:102E3000D1FF95F8460010B9284600F063FA70BD3E
:102E400070B5044626463EB940F66912AFF69811B1
:102E5000AFF6801001F0CAF9B06B08B9012500E0A7
:102E60000025284670BD70B5044626463EB940F69A
:102E70009212AFF6BC11AFF6A41001F0B7F9B06B27
:102E8000F16B884201D1012500E00025284670BD84
:102E90002DE9F04106460F463EB940F6C722AFF68F
:102EA000E811AFF6D01001F0A1F90025BFB1002460
:102EB00012E01C4800EBC4004068B04203D119483E
:102EC00000EBC4050AE035B9164850F8340010B9D3
:102ED000144800EBC405641C0A2CEAD300BF0DB1F2
:102EE0002F606E60BDE8F08170B5054600263DB9E3
:102EF00040F6F722AFF64021AFF6282001F076F930
:102F000000240AE0074800EBC4004068A84203D14F
:102F1000044850F8346002E0641C0A2CF2D300BF6D
:102F2000304670BD58070020A0480068401C08B912
:102F3000012000E0002020B9CE229DA1A7A001F031
:102F400055F900BF502080F31188BFF34F8FBFF3B6
:102F50006F8F00BF00BFFEE7001F4FF0807303605C
:102F6000001F21F001030360001FA04B0360143811
:102F700002602038704700204FF0E021086188612E
:102F80009B4800684FF47A71B0FBF1F0401E4FF09F
:102F9000E02148610720086170471CB5954C204628
:102FA00000780190FF2021460870084600780090C4
:102FB0009DF8000000F0F0009DF80010884201D15B
:102FC000012000E0002028B940F21F1278A183A060
:102FD00001F00CF99DF8000000F0500086490870DF
:102FE00007208649086009E084480068401E83493C
:102FF00008609DF800004006000E00909DF800005B
:1030000000F080008028EFD07C480068C0F1070005
:10301000042801D1012000E0002028B940F2331239
:1030200063A16EA001F0E2F874480068C0F10700E7
:10303000042801D1012000E0002028B94FF49E723D
:103040005BA166A001F0D2F86C48006800026B49F1
:1030500008600846008800F4E0600860654901984F
:1030600008706748006840F47000654908600846C9
:10307000006840F070400860FFF77DFF00204B497A
:103080000860FDF773F800201CBD10B547480068C4
:10309000B0F57A7F01D1012000E0002028B940F28C
:1030A000631243A14DA001F0A1F810BD10B500BFFF
:1030B000502080F31188BFF34F8FBFF36F8F00BF95
:1030C0003A480068401C39490860084600680128F1
:1030D0000ED14B481C380068C0B208B9012000E08E
:1030E000002028B940F2731231A13CA001F07EF813
:1030F00010BD10B52D48006828B94FF4BD722CA141
:1031000036A001F073F829480068401E274908607E
:103110000846006820B9002080F3118800BF00BF76
:1031200010BD10B500BF502080F31188BFF34F8F42
:10313000BFF36F8F00BFFDF77DFC20B14FF08050D3
:103140002F491C39086000BF002080F3118800BFA0
:1031500010BD70B5FDF740F80546102D11D305F1EF
:10316000E02090F8F04324480078844201DB0120FD
:1031700000E0002028B940F2BB220DA117A001F009
:1031800035F81F481438006800F4E0601B490968EE
:10319000884201D8012000E0002028B940F2CB226B
:1031A00003A10EA001F022F870BD00006C00002009
:1031B0002E2E5C4672656552544F535C706F72746C
:1031C00061626C655C525644535C41524D5F434DA5
:1031D000335C706F72742E63000000004572726F72
:1031E000723A25732C25640D0A000000292F00086F
:1031F0009000002000E400E0700000207400002037
:1032000020ED00E04F4A22F007004F4A10600022F4
:103210004D4B5A6048F6F8724C4B5A6000221A60C7
:10322000014648F6F8724A601A460A6070472DE96E
:10323000F04104464FF00008FDF7B8FD444800682F
:1032400020B9FFF7DFFF012041490860FCB104F11C
:103250000800A0421BD9083404F00700C0F10800A0
:103260002044A04211D904F00700C0F10800044432
:1032700004F0070008B9012000E0002040B99422C2
:1032800034A13EA000F0B2FF02E0002400E00024E0
:10329000002C32D03D48006884422ED82A4F384650
:1032A000056801E02F462D686868A04202D22868B0
:1032B0000028F7D1254885421FD0386800F108085A
:1032C000286838606868001B102810D92E196868B3
:1032D000001B70606C6071681B4800E00068026849
:1032E00052688A42FAD302683260066000BF2749FA
:1032F00068680968081A25490860FDF75FFC4046C0
:10330000BDE8F08170B506463546B6B1083D2C469D
:10331000FDF74CFD61680C4800E0006802685268E7
:103320008A42FAD30268226004601849606809681A
:10333000084416490860FDF741FC70BD1348006859
:1033400070477047B0070020780000208000002000
:103350008C0000202E2E5C4672656552544F535CE3
:10336000706F727461626C655C4D656D4D616E6706
:103370005C686561705F322E630000004572726F99
:10338000723A25732C25640D0A0000008800002085
:103390000648804706480047FEE7FEE7FEE7FEE7EF
:1033A000FEE7FEE7FEE7FEE7FEE7FEE793340008F0
:1033B000310100080CB50020019000906C480068B5
:1033C00040F480306A49086000BF6948006800F432
:1033D000003000900198401C0190009818B90198A5
:1033E000B0F5A06FF1D16248006800F4003010B170
:1033F0000120009001E0002000900098012843D1B6
:103400005C48006840F010005A49086008460068AF
:1034100020F0030008600846006840F002000860E1
:10342000534840685249486008464068486008462A
:10343000406840F4806048600846406820F47C1092
:1034400048600846406840F4E81048600846006854
:1034500040F08070086000BF4548006800F00070D0
:103460000028F9D04248406820F0030040494860F5
:103470000846406840F00200486000BF3C48406891
:1034800000F00C000828F9D10CBD10B5FFF792FF31
:1034900010BD10B53648006840F00100344908609E
:1034A0000846406834490840314948600846006889
:1034B000324908402E4908600846006820F4802000
:1034C00008600846406820F4FE0048604FF41F0082
:1034D0008860FFF7DAFF4FF000602949086010BDEF
:1034E00010B5002100200022214B5B6803F00C0185
:1034F00021B1042906D0082928D107E0214B224C0C
:10350000236027E01F4B204C236023E0184B5B68AF
:1035100003F47010164B5B6803F48032022303EB54
:10352000904022B9194B4343174C23600DE0104BD8
:103530005B6803F4003323B1144B4343124C236004
:1035400003E0104B4343104C236003E00D4B0E4C43
:10355000236000BF00BF064B5B68C3F303130C4C32
:10356000E15C094B1B68CB40074C236010BD000099
:1035700000100240002002400000FFF8FFFFF6FEAE
:1035800008ED00E000127A009000002000093D00E4
:103590009400002031490143314A1160704770B5F1
:1035A000002100230F22C47804B32D4C246804F4B6
:1035B000E064C4F5E064210AC1F10403CA40447820
:1035C00004FA03F18478144021430901254C06785C
:1035D000A155047804F01F050124AC4005786D1155
:1035E000AD0005F1E025C5F8004109E0047804F0DC
:1035F0001F050124AC401C4D0678761145F8264085
:1036000070BD1A4A0A400243154B1B1F1A607047CF
:1036100039B1134A121D12680243114B1B1D1A6067
:1036200006E00F4A121D126882430D4B1B1D1A60E3
:103630007047042808D14FF0E021096941F00401E6
:103640004FF0E022116107E04FF0E021096921F01D
:1036500004014FF0E0221161704700000000FA05FC
:103660000CED00E000E400E080E100E080FFFF1FDF
:1036700010B50446FB48844209D10121880300F0BB
:1036800031FD00214FF4804000F02CFD32E0F6487F
:10369000844209D10121480400F031FD00214FF49A
:1036A000003000F02CFD25E0F048844209D10121D2
:1036B000880400F024FD00214FF4802000F01FFD5D
:1036C00018E0EB48844209D10121C80400F017FD3D
:1036D00000214FF4002000F012FD0BE0E548844289
:1036E00008D10121080500F00AFD00214FF48010E7
:1036F00000F005FD10BD2DE9F04786B005460E46E9
:103700000024A24600BFA1460027B08900B100BF37
:103710002F462C8A4CF6FF700440F08804432C821C
:10372000AC894EF6F3100440B088318908437189A2
:1037300008430443AC81AC8A4FF6FF400440B08993
:103740000443AC8201A800F046FCC648874202D17F
:10375000DDF810A001E0DDF80CA0A88900F400401D
:1037600040B10AEBCA0000EB0A1031684900B0FB17
:10377000F1F807E00AEBCA0000EB0A103168890093
:10378000B0FBF1F86420B8FBF0F0040120096421DB
:1037900001FB1089A88900F4004040B1322000EB01
:1037A000C900B0FBF1F000F00700044308E032204C
:1037B00000EB09106421B0FBF1F000F00F000443AE
:1037C0002C8106B0BDE8F0874FF41651016000214E
:1037D0008180C18001810C2141810021818170475C
:1037E00010B502460020108A4FF2FF0318400B88E4
:1037F0004C8823438C882343CC882343184310826E
:1038000010BD0021018041808180C180704721B1BD
:10381000828942F40052828104E082894DF6FF736E
:103820001A4082817047F0B5034600240026002527
:10383000002040F66A17B94200D100BF1846C1F314
:10384000421401F01F06012707FA06F5012C01D1E9
:103850000C3004E0022C01D1103000E014301AB119
:1038600007682F43076002E00768AF430760F0BDB9
:103870001AB1838A0B43838202E0838A8B4383825B
:103880007047028A4FF6F0731A400282028A0A4396
:103890000282704782894FF2FF731A4082818289C7
:1038A0000A438281704721B1828942F002028281FB
:1038B00004E082894FF6FD731A4082817047028AC4
:1038C0004FF6DF731A400282028A0A43028270476F
:1038D00021B1028A42F48042028204E0028A4BF65D
:1038E000FF731A4002827047C1F30802828070475A
:1038F00001468888C0F308007047818941F00101C2
:1039000081817047028BD2B20283028B42EA01228C
:1039100002837047028B02F47F420283028B0A43C8
:103920000283704721B1828A42F02002828204E041
:10393000828A4FF6DF731A408282704721B1828AF1
:1039400042F01002828204E0828A4FF6EF731A403E
:103950008282704721B1828A42F00802828204E0AA
:10396000828A4FF6F7731A408282704721B18289AA
:1039700042F40042828103E08289C2F30E02828116
:10398000704721B1828A42F40062828204E0828A16
:103990004FF2FF731A4082827047828A4FF6FB73A0
:1039A0001A408282828A0A438282704721B1828AC7
:1039B00042F00202828204E0828A4FF6FD731A40CE
:1039C0008282704702460020B1F5007F00D100BF1F
:1039D00013880B400BB1012000E00020704701F478
:1039E0000072B2F5007F00D100BFCA430280704769
:1039F00070B50246002400230025002040F66A1618
:103A0000B14200D100BFC1F3421501F01F030126EE
:103A100006FA03F3012D02D19689334006E0022D08
:103A200002D1168A334001E0968A33400C120126F7
:103A300006FA04F41688344013B10CB1012000E0FA
:103A4000002070BD10B50022002340F66A14A14288
:103A500000D100BF0A1201249440A3B2DC430480C9
:103A600010BD000000380140004400400048004004
:103A7000004C00400050004010B50446CC48844241
:103A800008D10121042000F02DFB0021042000F0CA
:103A900029FB46E0C748844208D10121082000F0F4
:103AA00021FB0021082000F01DFB3AE0C2488442BF
:103AB00008D10121102000F015FB0021102000F09A
:103AC00011FB2EE0BD48844208D10121202000F0E6
:103AD00009FB0021202000F005FB22E0B8488442C9
:103AE00008D10121402000F0FDFA0021402000F023
:103AF000F9FA16E0B348844208D10121802000F091
:103B0000F1FA0021802000F0EDFA0AE0AE4884428C
:103B100007D10121801500F0E5FA0021A01500F081
:103B2000E1FA10BD10B50121084600F0DBFA0021D2
:103B3000012000F0D7FA10BD2DE9F0410246002522
:103B40000026002000230024002791F803C00CF079
:103B50000F0591F803C00CF0100CBCF1000F03D05E
:103B600091F802C04CEA050591F800C0BCF1000FC5
:103B700031D0146800202BE04FF0010C0CFA00F358
:103B8000B1F800C00CEA03069E4220D183004FF03A
:103B90000F0C0CFA03F7BC4305FA03FC4CEA0404CF
:103BA00091F803C0BCF1280F06D14FF0010C0CFABC
:103BB00000FCC2F814C00AE091F803C0BCF1480F41
:103BC00005D14FF0010C0CFA00FCC2F810C0401CEB
:103BD0000828D1D31460B1F800C0BCF1FF0F34DD68
:103BE000546800202EE000F1080C4FF0010808FA9C
:103BF0000CF3B1F800C00CEA03069E4221D1830009
:103C00004FF00F0C0CFA03F7BC4305FA03FC4CEA27
:103C1000040491F803C0BCF1280F05D100F1080C91
:103C200008FA0CF8C2F8148091F803C0BCF1480FF0
:103C300007D100F1080C4FF0010808FA0CF8C2F89F
:103C40001080401C0828CED35460BDE8F0814FF6A8
:103C5000FF710180022181700421C170704702460A
:103C6000002093680B400BB1012000E0002070475A
:103C70000146886880B2704702460020D3680B4036
:103C80000BB1012000E0002070470146C86880B2F7
:103C9000704701617047416170470AB1016100E0FE
:103CA00041617047C16070474FF480320A438261BE
:103CB0008161826182698269704702460020434BBC
:103CC00018684FF68073184040EA021008433F4BD3
:103CD000186070473E49C8617047F0B50A46002336
:103CE00000240021002500F00046B6F1004F02D16B
:103CF000364EF16901E0354E7168C0F3034583B279
:103D000000F44016B6F5401F08D121F070612F4E27
:103D1000766826F070662D4F7E6012E000F4801603
:103D2000B6F5801F06D1032606FA05F4A14341F03B
:103D3000706106E0460D360103FA06F6B14341F024
:103D4000706122B1460D360103FA06F6314300F0E8
:103D50000046B6F1004F02D11C4EF16101E01B4E4E
:103D60007160F0BD30B500228B071C0F0F2303FAE2
:103D700004F2164B08338C1053F824309343134C41
:103D800008348D1044F8253023468C1053F8243025
:103D90008C07240F00FA04F423430C4C08348D10D4
:103DA00044F8253030BD0A49DC3108607047000016
:103DB00000080140000C01400010014000140140C7
:103DC00000180140001C014000200140000001409B
:103DD00000002042DF48006840F00100DD49086033
:103DE00008464068DC490840DA49486008460068EF
:103DF000DA490840D74908600846006820F4802066
:103E000008600846406820F4FE0048604FF41F0038
:103E100088607047CF49096821F48031CD4A11602C
:103E20001146096821F480211160B0F5803F03D06C
:103E3000B0F5802F0ED106E0C649096841F4803103
:103E4000C44A116007E0C349096841F4A021C14A8E
:103E5000116000E000BF00BF704710B501460022AE
:103E6000002300204A11012A02D1BA4C236806E03F
:103E7000022A02D1B74C236A01E0B64C636A01F012
:103E80001F02012494401C400CB1012000E00020DE
:103E900010BD38B5002000900024002500BF31205F
:103EA000FFF7DBFF05460098401C00900098B0F536
:103EB000A06F01D0002DF2D03120FFF7CEFF08B166
:103EC000012400E00024204638BD01460020A14A1C
:103ED000106820F0F80040EAC10010607047A04967
:103EE00008607047024600209A4B586820F47C1006
:103EF00042EA01031843974B586070479849086697
:103F0000704701460020934A506820F003000843A0
:103F1000506070478F48406800F00C0070470146C1
:103F200000208C4A506820F0F00008435060704731
:103F300001460020874A506820F4E0600843506042
:103F4000704701460020834A506820F4605040EAE0
:103F5000C1005060704729B17E4A527A02437D4BBE
:103F60005A7204E07B4A527A82437A4B5A72704703
:103F70007B49D8310860704701460020754A506877
:103F800020F440400843506070470021714A2032BD
:103F90001170704A82F82010012802D004280AD13A
:103FA00004E001216B4A2032117005E00521694AC5
:103FB0002032117000E000BF00BF704769490860FF
:103FC00070476449096A0143624A11627047654952
:103FD00044390860704730B50021002200240023D6
:103FE0005C4D6D6805F00C0121B1042905D008294C
:103FF00023D105E05C4D056022E05B4D05601FE0CC
:10400000544D6D6805F47012524D6D6805F480349E
:10401000022505EB92421CB9544D554305600BE057
:104020004C4D6D6805F400351DB1504D554305608C
:1040300002E04D4D5543056002E04B4D056000BF69
:1040400000BF444D6D6805F0F0010909484D6B5CF7
:104050000568DD4045603F4D6D6805F4E061090A83
:10406000434D6B5C4568DD4085603A4D6D6805F4F5
:104070006051C90A3E4D6B5C4568DD40C560354DF9
:104080006D6805F44041890B3A4D6B5CC568B5FB22
:10409000F3F5056130BD29B12E4A526902432D4B1B
:1040A0005A6104E02B4A526982432A4B5A61704795
:1040B00029B1284A92690243264B9A6104E0254AB5
:1040C00092698243234B9A61704729B1214AD26990
:1040D0000243204BDA6104E01E4AD26982431D4B41
:1040E000DA61704729B11B4AD2680243194BDA6082
:1040F00004E0184AD2688243164BDA60704729B14F
:10410000144A12690243134B1A6104E0114A1269FE
:104110008243104B1A61704712494039086070475A
:104120000F49C86470470B49C87170470948406A15
:1041300040F0807007494862704701460020054AF8
:1041400092680A400AB1012000E00020704701494E
:1041500088727047001002400000FFF8FFFFF6FE73
:10416000000042428004424200127A0000093D00F1
:10417000A4000020B400002040EA01039B0703D004
:1041800009E008C9121F08C0042AFAD203E011F896
:10419000013B00F8013B521EF9D2704730B50B4687
:1041A000014600202022012409E021FA02F59D4267
:1041B00005D303FA02F5491B04FA02F52844151E3B
:1041C000A2F10102F1DC30BD064C074D06E0E068CB
:1041D00040F0010394E8070098471034AC42F6D34E
:1041E000FBF7AAFFE4430008044400080FB4054BA2
:1041F00010B503A9044A029800F018F810BC5DF845
:1042000014FB00003F030008B800002002E008C8CB
:10421000121F08C1002AFAD170477047002001E040
:1042200001C1121F002AFBD1704700002DE9FF4F8A
:104230008BB09A460F460546002606E025280BD08F
:1042400052460D9990476D1C761C28780028F5D1B0
:104250000FB03046BDE8F08F0024A046012260492F
:1042600000E0044315F8013F203B02FA03F0084246
:10427000F7D128782E2817D115F8010F44F004043F
:104280002A280ED06FF02F022878A0F130010929DA
:104290000AD808EB880102EB410100EB01086D1C14
:1042A000F2E757F8048B6D1C287869283ED006DCAD
:1042B0000028CDD063280BD0642804D136E07328C1
:1042C00010D075284BD052460D999047761C85E04A
:1042D00017F8040B8DF8000000208DF80100E94666
:1042E000012003E057F8049B4FF0FF3061074FF0C7
:1042F000000401D40AE0641C44450DDA8442FADB70
:1043000019F804100029F6D106E0641C8442FCDB95
:1043100019F804100029F8D1264404E019F8010B1B
:1043200052460D999047641EF8D257E001CF4FF0E6
:104330000A0B002802DA40422D2102E0210504D5B3
:104340002B218DF82410012103E0E10705D0202165
:10435000F7E70DF1200908910CE00021F9E701CF02
:104360004FF00A0BF9E75946FFF718FF01F1300249
:1043700009F8012D0028F6D1ADEB090000F1200B62
:10438000600701D44FF00108D84502DDA8EB0B000F
:1043900000E000208046002406E009A85246005DA7
:1043A0000D999047641C761C08988442F5DB04E064
:1043B000302052460D999047761CB8F10001A8F1C3
:1043C0000108F5DC05E019F8010B52460D999047FC
:1043D000761CBBF10001ABF1010BF4DC6D1C34E782
:1043E000092801000444000800000020BC0000006F
:1043F0000C420008C0440008BC000020EC9A0000F9
:104400001C42000800000000000000000000000046
:10441000000000000000000000000000000000009C
:10442000000000000000000000000000000000008C
:10443000000000000000000000000000000000007C
:10444000000000000000000000000000000000006C
:10445000000000000000000000000000000000005C
:1044600000000000000000001F000000000000002D
:10447000AAAAAAAA00000000000000000000000094
:10448000000000000000000000000000F88F0000A5
:104490000000000000A24A0400000000000000002C
:1044A00001020304060708090000000001020304DA
:1044B00001020304060708090204060800000000C0
:0400000508000131BD
:00000001FF
