:020000040800F2
:10000000789700200D230008ED030008EF03000897
:10001000F3030008F7030008FB03000800000000DA
:10002000000000000000000000000000490100087E
:10003000FF030008000000008D0100080104000813
:100040002723000827230008272300082723000868
:100050002723000827230008272300082723000858
:100060002723000827230008272300082723000848
:100070002723000827230008272300082723000838
:100080002723000827230008272300082723000828
:100090002723000827230008272300082723000818
:1000A0002723000827230008272300082723000808
:1000B00027230008272300082723000827230008F8
:1000C00027230008272300082723000827230008E8
:1000D00027230008272300082723000827230008D8
:1000E00027230008272300082723000827230008C8
:1000F00027230008272300082723000827230008B8
:1001000027230008272300082723000827230008A7
:100110002723000827230008272300082723000897
:100120002723000827230008272300082723000887
:10013000DFF810D002F0F4FF0048004791030008F8
:10014000AFF3008078970020224B19680868B0E868
:10015000F00F80F30988BFF36F8F4FF0000080F33A
:1001600011884EF00D0E7047000000000648006830
:10017000006880F3088862B661B6BFF34F8FBFF3A3
:100180006F8F00DF00BF00BF08ED00E0EFF30980D4
:10019000BFF36F8F0F4B1A6820E9F00F106008B59E
:1001A0004FF0500080F31188BFF34F8FBFF36F8F74
:1001B00000F0A8FE4FF0000080F31188BDE8084071
:1001C00019680868B0E8F00F80F30988BFF36F8FF3
:1001D000704700BF04000020EFF305807047000067
:1001E00008B54FF4A06002F093F925208DF80000C7
:1001F00001208DF801008DF802008DF8030068469B
:1002000002F08BF908BD00B585B00121042002F091
:100210000DFF0121880302F009FF4FF40070ADF8D3
:10022000100018208DF8130003208DF8120004A987
:10023000514802F03FFC4FF48060ADF810000420FC
:100240008DF8130004A94C4802F034FC4FF4E1305F
:1002500000900020ADF80400ADF80600ADF80800ED
:10026000ADF80C000C20ADF80A006946434802F0D6
:1002700000FA012240F22551404802F092FA012191
:100280003E4802F082FA05B000BD70B504460D4646
:100290002946204602F0E6FA00BF8021204602F0FF
:1002A0004FFB0028F9D070BD2DE9F04107460D46FF
:1002B0001646002405E0295D3846FFF7E6FF601C7E
:1002C000C4B2B442F7DB00BF4021384602F038FB2D
:1002D0000028F9D0BDE8F08170B506460C4600252F
:1002E00000BF615D3046FFF7D0FF6D1C605D0028E8
:1002F000F7D100BF4021304602F022FB0028F9D0A0
:1003000070BD2DE9F04105460C46260AE7B231469C
:10031000284602F0A7FA00BF8021284602F010FB11
:100320000028F9D03946284602F09CFA00BF802107
:10033000284602F005FB0028F9D0BDE8F08170B531
:1003400004460D46E1B20D4802F08CFA00BF802150
:100350000A4802F0F5FA0028F9D0204670BD10B521
:10036000044600BF2021054802F0EAFA0028F9D02F
:10037000024802F07BFA10BD00080140003801403D
:100380000446254603E0294611A002F0DBFEFAE709
:100390001CB5FFF738FF0F48022101230A02CDE9FF
:1003A00000100DA10E4800F05EF900200221042388
:1003B0000A02CDE900100BA1094800F054F900F041
:1003C00074FF00BFFEE702E007A002F0BBFEFBE700
:1003D00025640000000000205441534B3100000010
:1003E000810300085461736B32000000704700BF46
:1003F000FEE700BFFEE700BFFEE700BFFEE7704775
:1004000010B501F04CFE10BD00F1080141604FF045
:10041000FF31816000F10801C160016100210160CC
:10042000704700210161704742684A6093688B60A1
:10043000936859609160086103685B1C03607047B2
:1004400010B502460B685C1C0CB9106907E002F19C
:10045000080000E04068446824689C42FAD9446877
:100460004C604C68A160886041600A611468641C3B
:10047000146010BD01460A69D1E901309860D1E9E4
:10048000010358605068884201D18868506000209C
:1004900008611068401E10601068704710B5002495
:1004A00007E004EB8401FE4A02EB8100FFF7ACFF9A
:1004B000641C202CF5D3FB48FFF7A6FFFA48FFF792
:1004C000A3FFFA48FFF7A0FFF948FFF79DFFF9489F
:1004D000FFF79AFFF348F8490860F348F7490860C6
:1004E00010BD10B5044601F09FFDF5480068401CA2
:1004F000F3490860F348006840B9F24804600846D0
:10050000006801280DD1FFF7C9FF0AE0EE48006836
:1005100038B9EC480068C06AE16A884201D8E94805
:100520000460EA480068401CE849086094F82C1010
:1005300001208840E64909680843E5490860E16A06
:1005400001EB8101D64A02EB81014868A060826814
:10055000E260211D826851608160E16A01EB8101E6
:10056000CF4A02EB81026261E16A01EB8101CC4A70
:1005700052F82110491CE26A02EB8202C84B43F890
:10058000221001F074FDD048006868B1CD480068C1
:10059000C06AE16A884207D24FF08050CD490860B6
:1005A000BFF34F8FBFF36F8F10BD2DE9FF5F814603
:1005B0000E469246DDE90E7B109CAAF10100216BEC
:1005C00001EB800828F0070808F0070008B90120AF
:1005D00000E0002028B940F25F32BFA1C5A002F0C0
:1005E000B1FD86B1002507E0715D04F1340041558D
:1005F000705D00B902E06D1C102DF5D300BF002125
:100600004320015502E0002084F83400202F01D25D
:10061000012000E0002028B940F29632AEA1B5A03A
:1006200002F090FD202F00D31F27E762201DFFF767
:10063000F8FE04F11800FFF7F4FE2461C7F1200072
:10064000A06164620020606484F848004946404626
:10065000039A01F03FFC2060BBF1000F01D0CBF802
:100660000040BDE8FF9F2DE9FF4F85B080468946D9
:100670001746DDE912ABB80001F097FD064656B10A
:100680004C2001F092FD04460CB1266304E0304694
:1006900001F0F6FD00E000247CB10020CDE900ABC4
:1006A000CDE902403A4649464046089BFFF77DFFA8
:1006B0002046FFF716FF012501E04FF0FF352846E1
:1006C00009B0BDE8F08F7C480068006808B90120D7
:1006D00000E0002020B14FF0FF308A49086005E0BB
:1006E00075480068C068006886490860704710B5A2
:1006F0000446206B01F0C4FD204601F0C1FD10BD91
:1007000070B5054601F090FC15B96E48006800E030
:1007100028460446201DFFF7ADFE78B9E06A00EBDD
:1007200080005F4951F8200040B994F82C10012056
:10073000884067490968814365480160A06A18B12B
:1007400004F11800FFF796FE60480068401C5F49FE
:1007500008605C480068844209D1211D5448FFF7B5
:1007600063FE69480068401C6749086009E0544816
:100770000068401E524908602046FFF7B8FFFFF7A7
:10078000A2FF01F074FC50480068C0B14D480068F9
:10079000844214D15D48006808B9012000E00020BF
:1007A00028B940F2D3424CA152A002F0CBFC4FF04A
:1007B000805048490860BFF34F8FBFF36F8F70BD03
:1007C0002DE9F0414FF0000850480068002865D13D
:1007D0004F480068451C4E480560EDB93648006832
:1007E000006808B9012000E0002028B940F6BE22C8
:1007F00039A140A002F0A6FC2F4807682F480068E6
:100800002D4908602D48076042480068401C414956
:100810000860FFF758FF00BF3A48006885427BD365
:1008200000BF25480068006808B9012000E00020EA
:1008300020B14FF0FF3033490860A6E01E48006841
:10084000C068C4686668B54202D22E4806609CE063
:100850006069D4E902128A60D4E902214A60211D4C
:1008600042688A4201D1E168416000226261016808
:10087000491E0160A06A90B1A06AD4E907128A609B
:10088000D4E907214A6004F1180142688A4201D183
:10089000216A41600022A26201683EE088E03FE0F8
:1008A0009400002014030020280300203C030020B3
:1008B0005003002064030020080000200C000020EA
:1008C0001400002004000020200000203000002040
:1008D0001C00002004ED00E02E2E5C46726565527F
:1008E000544F535C536F757263655C7461736B73C3
:1008F0002E6300004572726F723A25732C25640DC9
:100900000A000000340000201000002040000020F9
:10091000180000202C00002038E0491E016000BFB4
:1009200094F82C1001208840F74909680843F649DB
:100930000860E16A01EB8101F44A02EB8101486839
:10094000A0608268E260211D826851608160E16A76
:1009500001EB8101ED4A02EB81026261E16A01EB88
:100960008101EA4A52F82110491CE26A02EB820234
:10097000E64B43F82210E649E06A0968C96A8842F2
:10098000FFF44FAF4FF001084BE700BFE0480068AD
:10099000C06A00EB8000DD4951F82000012801D930
:1009A0004FF00108DB48006808B14FF0010804E08F
:1009B000D9480068401CD84908604046BDE8F0812D
:1009C00070B500240026D548006838B940F6AA0260
:1009D000AFF2FC01AFF2E40002F0B4FB01F024FB43
:1009E000CE480068401ECD490860084600680028CF
:1009F0007ED1CB48006800287AD05BE0C948C06847
:100A0000C468A06AD4E907128A60D4E907214A6061
:100A100004F1180142688A4201D1216A4160002232
:100A2000A2620168491E01606069D4E902128A600D
:100A3000D4E902214A60211D42688A4201D1E1685D
:100A40004160002262610168491E016094F82C1027
:100A500001208840AC4909680843AB490860E16A55
:100A600001EB8101A94A02EB81014868A06082681C
:100A7000E260211D826851608160E16A01EB8101C1
:100A8000A24A02EB81026261E16A01EB81019F4AA5
:100A900052F82110491CE26A02EB82029B4B43F898
:100AA00022109B49E06A0968C96A884202D3012082
:100AB000984908609B48006808B9012000E00020C0
:100AC00000289BD00CB1FFF7FEFD9348056865B187
:100AD00000BFFFF775FE10B101208E4908606D1E42
:100AE000002DF6D100208C4908608A48006800E09B
:100AF00008E038B1012630078B490860BFF34F8FFB
:100B0000BFF36F8F01F0B3FA304670BD2DE9F041AD
:100B100005460E46854807687D480068001DFFF7BA
:100B2000A9FC50B97A48006890F82C100120884040
:100B300075490968814374480160681CD8B9D6B109
:100B40007B49486872490968886071498268096808
:100B5000CA606F490968091D826851606C4909685B
:100B6000091D8160724A6A4909684A61114609682B
:100B7000491C11601AE07C19654800684460BC4259
:100B800007D263480168091D6A480068FFF758FCEE
:100B90000CE05F480168091D67480068FFF750FCDA
:100BA00066480068844201D264480460BDE8F08170
:100BB0005A480068401C5949086070472DE9F047C1
:100BC00004460F464FF000093CB94FF49D62AFF266
:100BD000F821AFF2E02002F0B5FA0FB1012000E0F9
:100BE000002038B940F2E942AFF21431AFF2FC20F4
:100BF00002F0A8FA4948006808B9012000E0002086
:100C000038B940F2EA42AFF23031AFF2183002F0B8
:100C100099FAFFF7CDFF454806682068C519206896
:100C2000B04207D92068A8420BD9B54209D94FF084
:100C3000010906E02068A84201D8B54201D94FF069
:100C400001092560B9F1000F03D0A81B0021FFF7AF
:100C50005DFFFFF7B5FE8046B8F1000F07D14FF0FA
:100C6000805031490860BFF34F8FBFF36F8F484604
:100C7000BDE8F08770B504460025BCB12748006880
:100C800008B9012000E0002038B94FF4A862AFF2A3
:100C9000B831AFF2A03002F055FAFFF789FF00211A
:100CA0002046FFF733FFFFF78BFE05463DB94FF0B7
:100CB00080501D490860BFF34F8FBFF36F8F70BD29
:100CC0002DE9F04707463E463EB940F26C52AFF27E
:100CD000F831AFF2E03002F035FA0D480068864294
:100CE00001D1002449E001F09FF975691248D0F85C
:100CF00000801048D0F8009001F0B9F9454501D0C6
:100D00004D451DD1022438E01C0000209400002035
:100D100004000020280000202400002040000020C3
:100D2000140000203C03002004ED00E01800002027
:100D3000640300200C000020080000203400002084
:100D4000FD48854212D1B06A70B90324002007E043
:100D500006F14801095C012901D1022402E0401C8E
:100D60000128F5DB00BF08E0022406E0F3488542D5
:100D700000D00DB9042400E001242046BDE8F0872E
:100D800070B5044601F050F914B9ED48006800E070
:100D900020460646F56A01F06AF9284670BD2DE93D
:100DA000F041054601F093F900BF5021EFF31180A7
:100DB00081F31188BFF34F8FBFF36F8F00BF0446DD
:100DC00015B9DF48006800E028460746FE6A00BF04
:100DD00084F3118800BF3046BDE8F0812DE9F0476B
:100DE00080460D464FF00009202D01D2012000E081
:100DF000002038B940F20C62AFF22451AFF20C502F
:100E000002F0A0F9202D00D31F2501F00DF9B8F153
:100E1000000F02D1CA48006800E040460446E66A76
:100E2000AE426BD0B5420BD9C548006884420DD0A4
:100E3000C3480068C06AA84208D84FF0010905E01D
:100E4000BF480068844201D14FF00109E76AE562BA
:100E5000A06900F0004010B9C5F12000A06107EBC7
:100E60008701B84A02EB81016069884201D1012003
:100E700000E00020B0B3201DFFF7FCFA30B90120DC
:100E8000B840B14909688143AF48016094F82C101B
:100E900001208840AC4909680843AB490860E16A11
:100EA00001EB8101A74A02EB81014868A0608268DA
:100EB000E260211D826851608160E16A01EB81017D
:100EC000A04A02EB81026261E16A01EB81019D4A65
:100ED00052F82110491CE26A02EB8202994B43F856
:100EE000221000BFB9F1000F07D04FF08050974992
:100EF0000860BFF34F8FBFF36F8F00BF01F0B7F8EB
:100F0000BDE8F08710B59248006818B101209149FA
:100F100008602FE000208F4908608B480068B0FA15
:100F200080F0C0F11F0404EB8400864951F82000D2
:100F300008B1012000E0002038B940F6F932AFF2E4
:100F40006861AFF2506002F0FDF804EB84017D4A65
:100F500002EB810041684968416000F10801426884
:100F60008A4202D14168496841604168C968744A4F
:100F7000116000BF10BD70B5054601F055F815B9F8
:100F80006F48006800E028460446201DFFF772FA0B
:100F900078B9E06A00EB80006A4951F8200040B956
:100FA00094F82C10012088406749096881436648FD
:100FB0000160A06A18B104F11800FFF75BFA211D67
:100FC0005D48FFF731FA002009E004F14801095CAF
:100FD000012903D1002204F148010A54401C0128D0
:100FE000F3DB01F044F85C48006828B101F01CF81C
:100FF000FFF769FB01F03BF851480068844226D1B5
:1010000055480068B8B15248006808B9012000E0AE
:10101000002038B940F2F462AFF24471AFF22C70A4
:1010200002F090F84FF0805048490860BFF34F8FAE
:10103000BFF36F8F0BE04048006848490968884259
:1010400003D100203E49086001E0FFF75BFF70BD5F
:1010500070B5054600262C463DB940F21E72AFF22F
:101060008871AFF2707002F06DF8334960698842A0
:1010700001D1012000E0002070B13949A06A884206
:1010800001D1012000E0002030B9A06A08B9012098
:1010900000E0002000B10126304670BD70B5054665
:1010A0002C463DB94FF4E962AFF2D471AFF2BC7097
:1010B00002F048F82248006884425DD0002C5BD0E2
:1010C00000F0B2FF2046FFF7C3FFA0B3201DFFF7DB
:1010D000D1F994F82C10012088401B490968084375
:1010E00019490860E16A01EB8101164A02EB8101AE
:1010F0004868A0608268E260211D8268516081605A
:10110000E16A01EB81010F4A02EB81026261E16A4F
:1011100001EB81010B4A52F82110491CE26A02EBF3
:101120008202084B43F822100549E06A0968C96A3F
:1011300088421FD316E01DE0640300205003002006
:1011400004000020940000201C00002004ED00E0BA
:101150004000002028000020200000201400002073
:101160003C0300204FF08050FB490860BFF34F8FD5
:10117000BFF36F8F00F07BFF70BD2DE9F041064695
:10118000002734463EB940F27F72AFF6B401AFF6A5
:101190009C0001F0D7FF00F09AFF00BF5020EFF352
:1011A000118180F31188BFF34F8FBFF36F8F00BFA2
:1011B0000D462046FFF74CFF002841D0E748006865
:1011C000002838D1E649E06A0968C96A884203D331
:1011D00001270120E3490860201DFFF74BF994F82F
:1011E0002C1001208840E04909680843DE49086066
:1011F000E16A01EB8101DD4A02EB81014868A060F0
:101200008268E260211D826851608160E16A01EBC1
:101210008101D64A02EB81026261E16A01EB810140
:10122000D24A52F82110491CE26A02EB8202CF4BEB
:1012300043F8221004E004F11801CD48FFF7F4F858
:1012400000BF85F3118800BF3846BDE8F08110B5B6
:1012500016E000F0E9FEC748C068C468201DFFF72B
:1012600009F9C5480068401EC3490860C3480068C2
:10127000401EC249086000F0FAFE2046FFF737FA28
:10128000BE4800680028E4D110BD00BFFFF7DFFFB3
:10129000B64800680128F9D94FF08050AE4908607F
:1012A000BFF34F8FBFF36F8FF0E71CB5B448002139
:1012B0000B468022CDE90010B2A1B448FFF7D3F964
:1012C0000446012C15D100BF502080F31188BFF3D4
:1012D0004F8FBFF36F8F00BF4FF0FF30AC490860F6
:1012E0000120AC4908600020AB49086000F013FE03
:1012F0000DE0601C08B1012000E0002038B940F684
:101300003702AFF62C21AFF6142001F01BFFA348E3
:1013100000681CBD10B500BF502080F31188BFF3DA
:101320004F8FBFF36F8F00BF00209A49086000F015
:101330006AFE10BD98490868704770B500F0C7FE96
:10134000002595480468204670BD8B4800687047AA
:1013500070B5044614B98248006800E0204605468E
:101360003DB94FF41562AFF69021AFF6782001F049
:10137000E9FE05F1340070BD70B504467748006899
:1013800008B9012000E0002038B940F64B22AFF642
:10139000B821AFF6A02001F0D5FEFFF709FC804888
:1013A000006820447E490860FFF70AFB054628468E
:1013B00070BD70B504460D463CB940F61342AFF619
:1013C000E821AFF6D02001F0BDFE65480168183174
:1013D0002046FFF735F801212846FFF797FB70BD3F
:1013E00070B504460D4616463CB940F62D42AFF6A0
:1013F0001831AFF6003001F0A5FE5848006808B17A
:10140000012000E0002038B940F63142AFF6383113
:10141000AFF6203001F096FE45F0004050490968D3
:10142000886160684E490968C8614D4982680968E9
:101430000A624B4909681831826851604849096855
:1014400018318160464909688C622168491C216015
:1014500001213046FFF75AFB70BD70B50646F068B3
:10146000C4683CB940F67942AFF69431AFF67C30AF
:1014700001F068FEA06AD4E907128A60D4E9072166
:101480004A6004F1180142688A4201D1216A416030
:101490000022A2620168491E0160304800680028ED
:1014A0003DD16069D4E902128A60D4E902214A6020
:1014B000211D42688A4201D1E168416000226261D7
:1014C0000168491E016094F82C10012088402649CB
:1014D0000968084324490860E16A01EB8101234A55
:1014E00002EB81014868A0608268E260211D826889
:1014F00051608160E16A01EB81011C4A02EB8102CB
:101500006261E16A01EB8101184A52F82110491C1D
:10151000E26A02EB8202154B43F8221010E01449F4
:101520004868E0618268226204F1180182685160B3
:1015300081600F4AA26211460968491C116000BF10
:101540000749E06A0968C96A88422BD90125012048
:101550000449086027E0000004ED00E0400000209E
:1015600004000020280000201C000020940000201F
:101570003C03002050030020140000201000002035
:101580003800002049444C45000000008B12000840
:101590003400002020000020180000203C00002023
:1015A000240000200025284670BD70B505460E4673
:1015B000F748006808B1012000E0002038B940F683
:1015C000B142AFF6EC41AFF6D44001F0BBFD46F0BE
:1015D00000402860EC683CB940F6B942AFF60851CB
:1015E000AFF6F04001F0AEFD2869D5E90121916028
:1015F000D5E9011251604168A94201D1A968416051
:10160000002129610168491E01606069D4E9021264
:101610008A60D4E902214A60211D42688A4201D1D0
:10162000E1684160002262610168491E016094F82E
:101630002C1001208840D74909680843D549086023
:10164000E16A01EB8101D44A02EB81014868A060A4
:101650008268E260211D826851608160E16A01EB6D
:101660008101CD4A02EB81026261E16A01EB8101F5
:10167000C94A52F82110491CE26A02EB8202C64BA9
:1016800043F82210C549E06A0968C96A884202D94C
:101690000120C349086070BD10B504463CB940F64E
:1016A000DD42AFF6CC51AFF6B45001F04BFD00F087
:1016B000BBFCBC4800682060BB480068606000F06C
:1016C000D6FC10BDB74909680160B7490968416097
:1016D000704770B505460C463DB940F6F442AFF68A
:1016E0000861AFF6F05001F02DFD3CB940F6F5422F
:1016F000AFF61C61AFF6046001F024FD00F094FC2D
:10170000A948036868681A1A2068401C08B90026AE
:1017100019E0A44928680968884206D06868984298
:1017200003D80126002020600DE02068904207D9F0
:101730002068801A20602846FFF7C4FF002602E0D8
:1017400000202060012600F092FC304670BD012090
:101750009349086070479549096809B9012005E077
:101760008B49096809B9022000E0002070478B49C5
:101770000968886989490968C96AC1F12001874AED
:101780001268916170472DE9F04104460F461646F4
:101790000CB9012000E0002038B941F25D22AFF61B
:1017A000C861AFF6B06001F0CDFC00F03DFC7B48B5
:1017B0000068443050F8240080B90121774800685F
:1017C0004830015556B13046FFF7A0F94FF0805030
:1017D00077490860BFF34F8FBFF36F8F00F047FC6E
:1017E00000F022FC6D480068443050F824506DB180
:1017F00037B1002169480068443040F8241005E002
:10180000681E66490968443141F824000021634894
:1018100000684830015500F02AFC2846BDE8F081F8
:101820002DE9F04704460F4690461D46DDF820900E
:101830000CB9012000E0002038B941F2A722AFF630
:101840006871AFF6507001F07DFC00F0EDFB53487D
:1018500000684830005D02281AD0504909684431B8
:1018600001EB84000168B943016001214B48006825
:1018700048300155B9F1000F0AD04846FFF746F944
:101880004FF080504A490860BFF34F8FBFF36F8F0E
:1018900000F0EDFB00F0C8FB2DB14048006844307B
:1018A00050F8240028603D4800684830005D022858
:1018B00001D0002609E039490968443101EB840070
:1018C000016821EA0801016001260021334800680F
:1018D0004830015500F0CBFB3046BDE8F0872DE9DC
:1018E000F05F07460D4616469846DDF828A04FF0F3
:1018F000010B0DB9012000E0002030B941F2FF22B8
:101900002C4901F11C0001F01DFC37B94FF498522D
:10191000284901F11C0001F015FC3C4600F084FB55
:10192000BAF1000F05D004F1440050F82500CAF8C0
:10193000000004F1480010F8059002214155B8F16B
:10194000050F3DD2DFE808F03B030D171C0004F142
:10195000440050F82500304304F1440141F82500CB
:101960003DE004F1440050F82500401C04F144011E
:1019700041F8250033E004F1440040F825602EE0F2
:10198000B9F1020F18D004F1440040F8256015E0C9
:10199000400000201C0000209400002004000020D3
:1019A000280000202C00002018000020200000202B
:1019B00004ED00E0D80800084FF0000B0FE00EE047
:1019C000FE48006808B9012000E0002030B941F26B
:1019D0003532FB4901F11C0001F0B4FB00BF00BF30
:1019E000B9F1010F57D16069D4E902128A60D4E9D4
:1019F00002214A60211D42688A4201D1E1684160AA
:101A0000002262610168491E016094F82C100120D7
:101A10008840EC4909680843EA490860E16A01EB3B
:101A20008101E94A02EB81014868A0608268E260B6
:101A3000211D826851608160E16A01EB8101E24A07
:101A400002EB81026261E16A01EB8101DE4A52F838
:101A50002110491CE26A02EB8202DB4B43F82210A0
:101A6000A06A08B9012000E0002030B941F24432F8
:101A7000D34901F11C0001F065FBD449E06A096813
:101A8000C96A884207D94FF08050D1490860BFF336
:101A90004F8FBFF36F8F00F0EAFA5846BDE8F09F12
:101AA0002DE9F84F80460D4617469946DDF828B0D7
:101AB00001200090B8F1000F06D141F27C32C049FC
:101AC00001F11C0001F03EFB0DB9012000E00020F7
:101AD00030B941F27D32BA4901F11C0001F032FB0C
:101AE00000F0F5FA444600BF5021EFF3118081F376
:101AF0001188BFF34F8FBFF36F8F00BF0646BBF156
:101B0000000F05D004F1440050F82500CBF8000088
:101B100004F1480010F805A002214155B9F1050F64
:101B200029D2DFE809F027030D171C0004F1440057
:101B300050F82500384304F1440141F8250029E01C
:101B400004F1440050F82500401C04F1440141F820
:101B500025001FE004F1440040F825701AE0BAF1B6
:101B6000020F04D004F1440040F8257001E0002089
:101B700000900FE00EE09148006808B9012000E0F5
:101B8000002030B941F2C4328D4901F11C0001F04E
:101B9000D9FA00BF00BFBAF1010F6DD1A06A08B930
:101BA000012000E0002030B941F2CF32844901F138
:101BB0001C0001F0C7FA87480068E8BB6069D4E9F7
:101BC00002128A60D4E902214A60211D42688A42D9
:101BD00001D1E1684160002262610168491E016033
:101BE00094F82C100120884076490968084375490B
:101BF0000860E16A01EB8101734A02EB81014868E8
:101C0000A0608268E260211D826851608160E16AA3
:101C100001EB81016C4A02EB81026261E16A01EB36
:101C20008101694A52F82110491CE26A02EB8202E2
:101C3000654B43F8221011E0FFE767494868E0610F
:101C40008268226204F11801826851608160624AF0
:101C5000A26211460968491C116000BF5B49E06A35
:101C60000968C96A884207D90B9810B101210B98FD
:101C7000016001205949086000BF86F3118800BF48
:101C80000098BDE8F88F2DE9F04705460E469046CE
:101C900035B941F203424A4901F11C0001F052FA00
:101CA0000EB9012000E0002030B941F2044244495D
:101CB00001F11C0001F046FA00F009FA2C4600BFC1
:101CC0005021EFF3118081F31188BFF34F8FBFF3E1
:101CD0006F8F00BF074604F1480010F806900221FC
:101CE0008155001F50F82600401C04F1440141F8C2
:101CF0002600B9F1010F73D1A06A08B9012000E0F4
:101D0000002030B941F22A422D4901F11C0001F0B6
:101D100019FA3048006800283DD16069D4E9021200
:101D20008A60D4E902214A60211D42688A4201D1B9
:101D3000E1684160002262610168491E016094F817
:101D40002C10012088401F49096808431D4908607C
:101D5000E16A01EB81011C4A02EB81014868A06045
:101D60008268E260211D826851608160E16A01EB56
:101D70008101154A02EB81026261E16A01EB810196
:101D8000114A52F82110491CE26A02EB82020E4B02
:101D900043F8221010E010494868E061826822622E
:101DA00004F118018268516081600B4AA2621146F9
:101DB0000968491C116000BF044912E018000020A6
:101DC000D80800081C000020940000200400002017
:101DD00004ED00E0400000203C030020280000202B
:101DE0000DE0E06A0968C96A884208D9B8F1000FB5
:101DF00002D00120C8F8000001202749086000BF78
:101E000087F3118800BFBDE8F0872DE9F041064651
:101E10000C460CB9012000E0002030B941F25A42D2
:101E20001E4901F11C0001F08DF916B91C4800682B
:101E300000E03046074600F0F7F807F14800005D83
:101E4000022805D1002107F148000155012500E0D5
:101E5000002500F00CF92846BDE8F0812DE9F0419D
:101E600006460C46174616B90D48006800E0304695
:101E7000054600F0D9F805F1440050F8248050F8E8
:101E80002400B84305F1440141F8240000F0EFF8C4
:101E90004046BDE8F081000028000020D808000876
:101EA00004000020A0480068401C08B9012000E0A0
:101EB000002020B9CE229DA1A7A001F043F900BFC8
:101EC000502080F31188BFF34F8FBFF36F8F00BF97
:101ED00000BFFEE7001F4FF080730360001F21F07A
:101EE00001030360001FA04B036014380260203818
:101EF000704700204FF0E021086188619B4800682E
:101F00004FF47A71B0FBF1F0401E4FF0E0214861D0
:101F10000720086170471CB5954C20460078019059
:101F2000FF20214608700846007800909DF80000C8
:101F300000F0F0009DF80010884201D1012000E07F
:101F4000002028B940F21F1278A183A001F0FAF80E
:101F50009DF8000000F0500086490870072086496F
:101F6000086009E084480068401E834908609DF8C5
:101F700000004006000E00909DF8000000F0800078
:101F80008028EFD07C480068C0F10700042801D108
:101F9000012000E0002028B940F2331263A16EA0B6
:101FA00001F0D0F874480068C0F10700042801D19E
:101FB000012000E0002028B94FF49E725BA166A0CA
:101FC00001F0C0F86C48006800026B4908600846E0
:101FD000008800F4E060086065490198087067486F
:101FE000006840F47000654908600846006840F0E9
:101FF00070400860FFF77DFF00204B490860FEF746
:10200000B5F800201CBD10B547480068B0F57A7FD0
:1020100001D1012000E0002028B940F2631243A161
:102020004DA001F08FF810BD10B500BF502080F317
:102030001188BFF34F8FBFF36F8F00BF3A4800681E
:10204000401C394908600846006801280ED14B48F9
:102050001C380068C0B208B9012000E0002028B98F
:1020600040F2731231A13CA001F06CF810BD10B524
:102070002D48006828B94FF4BD722CA136A001F09C
:1020800061F829480068401E274908600846006832
:1020900020B9002080F3118800BF00BF10BD10B52B
:1020A00000BF502080F31188BFF34F8FBFF36F8FB5
:1020B00000BFFEF785FB20B14FF080502F491C393F
:1020C000086000BF002080F3118800BF10BD70B50C
:1020D000FEF782F80546102D11D305F1E02090F8A7
:1020E000F04324480078844201DB012000E0002016
:1020F00028B940F2BB220DA117A001F023F81F4818
:102100001438006800F4E0601B490968884201D86F
:10211000012000E0002028B940F2CB2203A10EA04C
:1021200001F010F870BD0000440000202E2E5C4627
:1021300072656552544F535C706F727461626C6566
:102140005C525644535C41524D5F434D335C706F5B
:1021500072742E63000000004572726F723A25732C
:102160002C25640D0A000000A51E00086800002050
:1021700000E400E0480000204C00002020ED00E0DA
:102180004F4A22F007004F4A106000224D4B5A6020
:1021900048F6F8724C4B5A6000221A60014648F625
:1021A000F8724A601A460A6070472DE9F041044609
:1021B0004FF00008FEF7FCFC4448006820B9FFF728
:1021C000DFFF012041490860FCB104F10800A04292
:1021D0001BD9083404F00700C0F108002044A042D5
:1021E00011D904F00700C0F10800044404F007000E
:1021F00008B9012000E0002040B9942234A13EA09B
:1022000000F0A0FF02E0002400E00024002C32D007
:102210003D48006884422ED82A4F3846056801E0C0
:102220002F462D686868A04202D228680028F7D19E
:10223000254885421FD0386800F1080828683860B2
:102240006868001B102810D92E196868001B706080
:102250006C6071681B4800E00068026852688A423E
:10226000FAD302683260066000BF274968680968CF
:10227000081A25490860FEF7A3FB4046BDE8F08137
:1022800070B506463546B6B1083D2C46FEF790FCC3
:1022900061680C4800E00068026852688A42FAD31C
:1022A0000268226004601849606809680844164999
:1022B0000860FEF785FB70BD1348006870477047E3
:1022C00080030020500000205800002064000020FF
:1022D0002E2E5C4672656552544F535C706F72745B
:1022E00061626C655C4D656D4D616E675C686561D2
:1022F000705F322E630000004572726F723A257370
:102300002C25640D0A00000060000020064880476C
:1023100006480047FEE7FEE7FEE7FEE7FEE7FEE7CA
:10232000FEE7FEE7FEE7FEE70F24000831010008A4
:102330000CB50020019000906C48006840F480309B
:102340006A49086000BF6948006800F400300090E6
:102350000198401C0190009818B90198B0F5A06F41
:10236000F1D16248006800F4003010B10120009003
:1023700001E0002000900098012843D15C480068EB
:1023800040F010005A4908600846006820F0030039
:1023900008600846006840F0020008605348406842
:1023A000524948600846406848600846406840F422
:1023B000806048600846406820F47C104860084609
:1023C000406840F4E81048600846006840F08070BB
:1023D000086000BF4548006800F000700028F9D090
:1023E0004248406820F00300404948600846406881
:1023F00040F00200486000BF3C48406800F00C001C
:102400000828F9D10CBD10B5FFF792FF10BD10B52B
:102410003648006840F001003449086008464068CA
:10242000344908403149486008460068324908404C
:102430002E4908600846006820F48020086008469D
:10244000406820F4FE0048604FF41F008860FFF7EA
:10245000DAFF4FF000602949086010BD10B5002177
:1024600000200022214B5B6803F00C0121B10429FC
:1024700006D0082928D107E0214B224C236027E011
:102480001F4B204C236023E0184B5B6803F4701053
:10249000164B5B6803F48032022303EB904022B9B1
:1024A000194B4343174C23600DE0104B5B6803F45A
:1024B000003323B1144B4343124C236003E0104B11
:1024C0004343104C236003E00D4B0E4C236000BFD0
:1024D00000BF064B5B68C3F303130C4CE15C094B74
:1024E0001B68CB40074C236010BD00000010024069
:1024F000002002400000FFF8FFFFF6FE08ED00E0BC
:1025000000127A006800002000093D006C000020E5
:1025100031490143314A1160704770B500210023F1
:102520000F22C47804B32D4C246804F4E064C4F58D
:10253000E064210AC1F10403CA40447804FA03F1BB
:102540008478144021430901254C0678A15504786C
:1025500004F01F050124AC4005786D11AD0005F1B4
:10256000E025C5F8004109E0047804F01F050124C6
:10257000AC401C4D0678761145F8264070BD1A4ACD
:102580000A400243154B1B1F1A60704739B1134AAA
:10259000121D12680243114B1B1D1A6006E00F4A00
:1025A000121D126882430D4B1B1D1A6070470428D0
:1025B00008D14FF0E021096941F004014FF0E02219
:1025C000116107E04FF0E021096921F004014FF0AB
:1025D000E0221161704700000000FA050CED00E0F8
:1025E00000E400E080E100E080FFFF1F10B504463A
:1025F000FB48844209D10121880300F031FD00210C
:102600004FF4804000F02CFD32E0F648844209D1BE
:102610000121480400F031FD00214FF4003000F0AA
:102620002CFD25E0F048844209D10121880400F006
:1026300024FD00214FF4802000F01FFD18E0EB483E
:10264000844209D10121C80400F017FD00214FF494
:10265000002000F012FD0BE0E548844208D1012182
:10266000080500F00AFD00214FF4801000F005FD80
:1026700010BD2DE9F04786B005460E460024A2465F
:1026800000BFA1460027B08900B100BF2F462C8AA9
:102690004CF6FF700440F08804432C82AC894EF65F
:1026A000F3100440B088318908437189084304431A
:1026B000AC81AC8A4FF6FF400440B0890443AC8241
:1026C00001A800F046FCC648874202D1DDF810A000
:1026D00001E0DDF80CA0A88900F4004040B10AEB4D
:1026E000CA0000EB0A1031684900B0FBF1F807E0BE
:1026F0000AEBCA0000EB0A1031688900B0FBF1F860
:102700006420B8FBF0F004012009642101FB10896A
:10271000A88900F4004040B1322000EBC900B0FBB2
:10272000F1F000F00700044308E0322000EB09104C
:102730006421B0FBF1F000F00F0004432C8106B0DF
:10274000BDE8F0874FF41651016000218180C180FF
:1027500001810C21418100218181704710B5024621
:102760000020108A4FF2FF0318400B884C88234347
:102770008C882343CC8823431843108210BD00214A
:10278000018041808180C180704721B1828942F4FB
:102790000052828104E082894DF6FF731A408281E3
:1027A0007047F0B50346002400260025002040F6BF
:1027B0006A17B94200D100BF1846C1F3421401F0B4
:1027C0001F06012707FA06F5012C01D10C3004E0A1
:1027D000022C01D1103000E014301AB107682F43E9
:1027E000076002E00768AF430760F0BD1AB1838A53
:1027F0000B43838202E0838A8B4383827047028A81
:102800004FF6F0731A400282028A0A43028270472E
:1028100082894FF2FF731A40828182890A43828142
:10282000704721B1828942F00202828104E08289EC
:102830004FF6FD731A4082817047028A4FF6DF73AC
:102840001A400282028A0A430282704721B1028A38
:1028500042F48042028204E0028A4BF6FF731A407F
:1028600002827047C1F3080282807047014688885F
:10287000C0F308007047818941F0010181817047F0
:10288000028BD2B20283028B42EA0122028370479A
:10289000028B02F47F420283028B0A430283704759
:1028A00021B1828A42F02002828204E0828A4FF6BD
:1028B000DF731A408282704721B1828A42F010028F
:1028C000828204E0828A4FF6EF731A408282704758
:1028D00021B1828A42F00802828204E0828A4FF6A5
:1028E000F7731A408282704721B1828942F4004214
:1028F000828103E08289C2F30E028281704721B196
:10290000828A42F40062828204E0828A4FF2FF737C
:102910001A4082827047828A4FF6FB731A40828285
:10292000828A0A438282704721B1828A42F002027F
:10293000828204E0828A4FF6FD731A4082827047D9
:1029400002460020B1F5007F00D100BF13880B4084
:102950000BB1012000E00020704701F40072B2F5D5
:10296000007F00D100BFCA430280704770B50246A5
:10297000002400230025002040F66A16B14200D151
:1029800000BFC1F3421501F01F03012606FA03F34D
:10299000012D02D19689334006E0022D02D1168A1C
:1029A000334001E0968A33400C12012606FA04F403
:1029B0001688344013B10CB1012000E0002070BD36
:1029C00010B50022002340F66A14A14200D100BFD6
:1029D0000A1201249440A3B2DC43048010BD00001D
:1029E000003801400044004000480040004C0040D6
:1029F0000050004010B50446CC48844208D1012163
:102A0000042000F02DFB0021042000F029FB46E00B
:102A1000C748844208D10121082000F021FB002191
:102A2000082000F01DFB3AE0C248844208D1012191
:102A3000102000F015FB0021102000F011FB2EE00B
:102A4000BD48844208D10121202000F009FB00216B
:102A5000202000F005FB22E0B848844208D1012183
:102A6000402000F0FDFA0021402000F0F9FA16E0C5
:102A7000B348844208D10121802000F0F1FA0021FE
:102A8000802000F0EDFA0AE0AE48844207D101212F
:102A9000801500F0E5FA0021A01500F0E1FA10BD64
:102AA00010B50121084600F0DBFA0021012000F0FA
:102AB000D7FA10BD2DE9F04102460025002600207E
:102AC00000230024002791F803C00CF00F0591F8B3
:102AD00003C00CF0100CBCF1000F03D091F802C041
:102AE0004CEA050591F800C0BCF1000F31D0146824
:102AF00000202BE04FF0010C0CFA00F3B1F800C0FD
:102B00000CEA03069E4220D183004FF00F0C0CFA12
:102B100003F7BC4305FA03FC4CEA040491F803C034
:102B2000BCF1280F06D14FF0010C0CFA00FCC2F8E2
:102B300014C00AE091F803C0BCF1480F05D14FF072
:102B4000010C0CFA00FCC2F810C0401C0828D1D3BC
:102B50001460B1F800C0BCF1FF0F34DD54680020F0
:102B60002EE000F1080C4FF0010808FA0CF3B1F860
:102B700000C00CEA03069E4221D183004FF00F0CE7
:102B80000CFA03F7BC4305FA03FC4CEA040491F881
:102B900003C0BCF1280F05D100F1080C08FA0CF8AD
:102BA000C2F8148091F803C0BCF1480F07D100F1BE
:102BB000080C4FF0010808FA0CF8C2F81080401C0D
:102BC0000828CED35460BDE8F0814FF6FF71018034
:102BD000022181700421C170704702460020936871
:102BE0000B400BB1012000E00020704701468868CF
:102BF00080B2704702460020D3680B400BB1012021
:102C000000E0002070470146C86880B2704701614B
:102C10007047416170470AB1016100E0416170474E
:102C2000C16070474FF480320A43826181618261E2
:102C300082698269704702460020434B18684FF64C
:102C40008073184040EA021008433F4B18607047F9
:102C50003E49C8617047F0B50A46002300240021B0
:102C6000002500F00046B6F1004F02D1364EF16962
:102C700001E0354E7168C0F3034583B200F440169D
:102C8000B6F5401F08D121F070612F4E766826F00E
:102C900070662D4F7E6012E000F48016B6F5801F3E
:102CA00006D1032606FA05F4A14341F0706106E05F
:102CB000460D360103FA06F6B14341F0706122B1C8
:102CC000460D360103FA06F6314300F00046B6F130
:102CD000004F02D11C4EF16101E01B4E7160F0BD4E
:102CE00030B500228B071C0F0F2303FA04F2164B9A
:102CF00008338C1053F824309343134C08348D1050
:102D000044F8253023468C1053F824308C07240FC8
:102D100000FA04F423430C4C08348D1044F8253099
:102D200030BD0A49DC3108607047000000080140EE
:102D3000000C014000100140001401400018014047
:102D4000001C014000200140000001400000204222
:102D5000DF48006840F00100DD490860084640682F
:102D6000DC490840DA49486008460068DA4908400A
:102D7000D74908600846006820F4802008600846AB
:102D8000406820F4FE0048604FF41F0088607047E0
:102D9000CF49096821F48031CD4A11601146096894
:102DA00021F480211160B0F5803F03D0B0F5802F71
:102DB0000ED106E0C649096841F48031C44A116069
:102DC00007E0C349096841F4A021C14A116000E04D
:102DD00000BF00BF704710B501460022002300204D
:102DE0004A11012A02D1BA4C236806E0022A02D114
:102DF000B74C236A01E0B64C636A01F01F0201245C
:102E000094401C400CB1012000E0002010BD38B5FA
:102E1000002000900024002500BF3120FFF7DBFFD9
:102E200005460098401C00900098B0F5A06F01D0B6
:102E3000002DF2D03120FFF7CEFF08B1012400E0D1
:102E40000024204638BD01460020A14A106820F029
:102E5000F80040EAC10010607047A0490860704760
:102E6000024600209A4B586820F47C1042EA010385
:102E70001843974B58607047984908667047014659
:102E80000020934A506820F00300084350607047C8
:102E90008F48406800F00C007047014600208C4AC3
:102EA000506820F0F0000843506070470146002051
:102EB000874A506820F4E06008435060704701463C
:102EC0000020834A506820F4605040EAC1005060FE
:102ED000704729B17E4A527A02437D4B5A7204E010
:102EE0007B4A527A82437A4B5A7270477B49D83177
:102EF0000860704701460020754A506820F4404041
:102F00000843506070470021714A20321170704AA6
:102F100082F82010012802D004280AD104E00121FF
:102F20006B4A2032117005E00521694A2032117088
:102F300000E000BF00BF70476949086070476449FE
:102F4000096A0143624A1162704765494439086061
:102F5000704730B500210022002400235C4D6D68CD
:102F600005F00C0121B1042905D0082923D105E081
:102F70005C4D056022E05B4D05601FE0544D6D68BF
:102F800005F47012524D6D6805F48034022505EB8E
:102F900092421CB9544D554305600BE04C4D6D6891
:102FA00005F400351DB1504D5543056002E04D4D0F
:102FB0005543056002E04B4D056000BF00BF444D26
:102FC0006D6805F0F0010909484D6B5C0568DD404E
:102FD00045603F4D6D6805F4E061090A434D6B5C47
:102FE0004568DD4085603A4D6D6805F46051C90A59
:102FF0003E4D6B5C4568DD40C560354D6D6805F440
:103000004041890B3A4D6B5CC568B5FBF3F5056132
:1030100030BD29B12E4A526902432D4B5A6104E05A
:103020002B4A526982432A4B5A61704729B1284A78
:1030300092690243264B9A6104E0254A92698243D1
:10304000234B9A61704729B1214AD2690243204B30
:10305000DA6104E01E4AD26982431D4BDA6170478F
:1030600029B11B4AD2680243194BDA6004E0184ABE
:10307000D2688243164BDA60704729B1144A12694C
:103080000243134B1A6104E0114A12698243104B48
:103090001A61704712494039086070470F49C86487
:1030A00070470B49C87170470948406A40F080700A
:1030B00007494862704701460020054A92680A4065
:1030C0000AB1012000E00020704701498872704772
:1030D000001002400000FFF8FFFFF6FE0000424231
:1030E0008004424200127A0000093D007C0000206A
:1030F0008C00002030B50B46014600202022012420
:1031000009E021FA02F59D4205D303FA02F5491BB5
:1031100004FA02F52844151EA2F10102F1DC30BDCB
:10312000064C074D06E0E06840F0010394E8070014
:1031300098471034AC42F6D3FCF7FEFF3C3300084E
:103140005C3300080FB4054B10B503A9044A02987C
:1031500000F018F810BC5DF814FB00003F030008F5
:103160009000002002E008C8121F08C1002AFAD10E
:1031700070477047002001E001C1121F002AFBD1F7
:10318000704700002DE9FF4F8BB09A460F46054669
:10319000002606E025280BD052460D9990476D1C5D
:1031A000761C28780028F5D10FB03046BDE8F08FA6
:1031B0000024A0460122604900E0044315F8013FC5
:1031C000203B02FA03F00842F7D128782E2817D1C5
:1031D00015F8010F44F004042A280ED06FF02F02D6
:1031E0002878A0F1300109290AD808EB880102EB00
:1031F000410100EB01086D1CF2E757F8048B6D1CD0
:10320000287869283ED006DC0028CDD063280BD072
:10321000642804D136E0732810D075284BD052466C
:103220000D999047761C85E017F8040B8DF8000087
:1032300000208DF80100E946012003E057F8049BC7
:103240004FF0FF3061074FF0000401D40AE0641C26
:1032500044450DDA8442FADB19F804100029F6D14E
:1032600006E0641C8442FCDB19F804100029F8D144
:10327000264404E019F8010B52460D999047641E4C
:10328000F8D257E001CF4FF00A0B002802DA404293
:103290002D2102E0210504D52B218DF824100121D8
:1032A00003E0E10705D02021F7E70DF1200908919F
:1032B0000CE00021F9E701CF4FF00A0BF9E759467E
:1032C000FFF718FF01F1300209F8012D0028F6D1AF
:1032D000ADEB090000F1200B600701D44FF00108AD
:1032E000D84502DDA8EB0B0000E00020804600245A
:1032F00006E009A85246005D0D999047641C761CB3
:1033000008988442F5DB04E0302052460D9990473E
:10331000761CB8F10001A8F10108F5DC05E019F808
:10332000010B52460D999047761CBBF10001ABF1A1
:10333000010BF4DC6D1C34E7092801005C33000844
:10334000000000209400000064310008F033000801
:1033500094000020E4960000743100080000000092
:10336000000000000000000000000000000000005D
:10337000000000000000000000000000000000004D
:10338000000000000000000000000000000000003D
:1033900000000000000000001F000000000000000E
:1033A000AAAAAAAA00000000000000000000000075
:1033B000000000000000000000000000F88F000086
:1033C0000000000000A24A0400000000000000000D
:1033D00001020304060708090000000001020304BB
:1033E00001020304060708090204060800000000A1
:0400000508000131BD
:00000001FF
